:040000002DEF01F0EF
:100008005D82E9CF4AF0EACF4BF0E1CF4CF0E2CF86
:100018004DF0D9CF4EF0DACF4FF0F3CF50F0F4CF08
:1000280051F0F6CF52F0F7CF53F0F8CF54F0F5CFA8
:1000380055F0000E0001896F25EE78F010EE60F0A3
:10004800270EDBCFE3FFE806FCE29EAA2EEF00F0C6
:1000580030EF00F086EF00F09DAA35EF00F037EFA3
:1000680000F086EF00F058EC4CF00001896F2C0E80
:10007800CE5D010ECF59D8B044EF00F046EF00F046
:1000880052EF00F0E40ECE25D96E0C0ECF21DA6EB9
:1000980089C0DFFFCE4BCF2B86EF00F0F40ECE5D8C
:1000A800010ECF59D8B05BEF00F05DEF00F05FEFC5
:1000B80000F04EEF00F09D9AC70E126E030E136EFD
:1000C800B30E146E030E156E9F0E166E030E176E8A
:1000D8008B0E186E030E196E770E1A6E030E1B6EBA
:1000E800630E1C6E030E1D6EDC0E1E6E040E1F6E5C
:1000F800BFEC30F0000E0001CF6F000ECE6F48EC61
:100108003CF09D8AA4AA8BEF00F08DEF00F0AEEFD3
:1001180000F0A3AA92EF00F094EF00F0AEEF00F029
:100128004BEC4CF000018A6F0A0E8A19D8A49FEF95
:1001380000F0A1EF00F0A6EF00F0010E0101FC6F46
:10014800AEEF00F0280E0B6E040E0C6E8AC00DF098
:10015800F7EC45F0F2AAB3EF00F0B5EF00F0D7EFF7
:1001680000F0F2A4BAEF00F0BCEF00F0D7EF00F017
:10017800F2940001D04BD12BF80ED76E2F0ED66E0D
:10018800010EBC27000EBD23BE23BF23010EB827D6
:10019800000EB923BA23BB23010E0201F727000E74
:1001A800F823F923FA23F0A6DCEF00F0DEEF00F0E5
:1001B80013EF01F0F0A0E3EF00F0E5EF00F013EF2C
:1001C80001F0F0900101FD51D8A4EDEF00F0EFEF40
:1001D80000F013EF01F08EEC4CF00001886F3B0E3D
:1001E8000B6E030E0C6E88C00DF0F7EC45F03B0E5D
:1001F800016E030E026E5EEC49F0080E0118021043
:10020800D8A409EF01F00BEF01F010EF01F0010E97
:100218000101FD6F13EF01F0000E0101FD6F55C0E4
:10022800F5FF54C0F8FF53C0F7FF52C0F6FF51C0A6
:10023800F4FF50C0F3FF4FC0DAFF4EC0D9FF4DC0E6
:10024800E2FF4CC0E1FF4BC0EAFF4AC0E9FF5D9204
:10025800110041EF3FF01C501D10D8B436EF01F0EB
:1002680038EF01F044EF01F01CC0D9FF1DC0DAFFE0
:100278001AC0DEFF1BC0DDFF44EF01F01A4A1B2A3B
:100288001AC0D9FF1BC0DAFF200EDE18D8B44FEF12
:1002980001F052EF01F0010E53EF01F0000E286E4D
:1002A800296A28502910D8A45CEF01F05EEF01F00C
:1002B80042EF01F01AC0D9FF1BC0DAFFDF501E6EF3
:1002C8001E50286E296AF70E28241F6EFF0E29205B
:1002D800206E205009E1050E1F5CD8A076EF01F0D2
:1002E80078EF01F042EF01F0000E256E2D0E281870
:1002F8002910D8A482EF01F084EF01F08AEF01F011
:10030800010E256E1A4A1B2A96EF01F02B0E2818AB
:100318002910D8A492EF01F094EF01F096EF01F0C4
:1003280086EF01F0000E2E6E9BEF01F02E2A2E5064
:100338001A24D96E000E1B20DA6EDF50D8B4A7EF4E
:1003480001F0A9EF01F0D9EF01F02E501A24D96E6F
:10035800000E1B20DA6EDF501E6E690E2E24F66E1C
:10036800F76AFF0EF7220800F5501E18D8B4BFEF41
:1003780001F0C1EF01F09AEF01F02E501A24D96E66
:10038800000E1B20DA6EDF501E6E600E2E24F66EF5
:10039800F76AFF0EF7220800F5501E18D8B4D7EFF9
:1003A80001F0D9EF01F09AEF01F0020E2E64DFEFB1
:1003B80001F0E1EF01F00DEF02F0000E2A6E000EE1
:1003C8002B6E800E2C6E7F0E2D6E1C501D10D8B417
:1003D800F0EF01F0F2EF01F02FEF09F0080E2E1800
:1003E800D8B4F9EF01F0FBEF01F0FDEF01F0030ED7
:1003F8002E6E2E501A241E6E000E1B201F6E1CC05F
:10040800D9FF1DC0DAFF1EC0DEFF1FC0DDFF2FEFC2
:1004180009F0000E2E6E12EF02F02E2A2E501A242A
:10042800D96E000E1B20DA6EDF50D8B41EEF02F032
:1004380020EF02F050EF02F02E501A24D96E000E71
:100448001B20DA6EDF501E6EDD0E2E24F66EF76A64
:10045800FF0EF7220800F5501E18D8B436EF02F048
:1004680038EF02F011EF02F02E501A24D96E000E68
:100478001B20DA6EDF501E6ED50E2E24F66EF76A3C
:10048800FF0EF7220800F5501E18D8B44EEF02F000
:1004980050EF02F011EF02F0030E2E18D8A457EF18
:1004A80002F059EF02F0C7EF02F08C0E016EFF0E5A
:1004B800026E0CEC4CF001C02AF002C02BF003C015
:1004C8002CF004C02DF01C501D10D8B46EEF02F0B3
:1004D80070EF02F02FEF09F02E501A26000E1B22A3
:1004E8001AC0D9FF1BC0DAFF280EDE18D8A47FEF88
:1004F80002F081EF02F0BDEF02F0000E2E6E86EFE3
:1005080002F02E2A2E501A24D96E000E1B20DA6E05
:10051800DF50D8B492EF02F094EF02F0A3EF02F0AC
:100528002E501A24D96E000E1B20DA6E290EDE1802
:10053800D8A4A1EF02F0A3EF02F085EF02F02E504D
:100548001A24D96E000E1B20DA6E290EDE18D8A4E4
:10055800B0EF02F0B2EF02F0BDEF02F02E501E6EC7
:100568001F6A010E1E26000E1F221E501A261F503B
:100578001B221CC0D9FF1DC0DAFF1AC0DEFF1BC03A
:10058800DDFF2FEF09F0000E296E000E286E000E19
:100598002A6E000E2B6E000E2C6E000E2D6E000EB5
:1005A800276E000E266E000E2E6EDCEF02F02E2A4D
:1005B8002E501A24D96E000E1B20DA6E300EDE186B
:1005C800D8B4E9EF02F0EBEF02F0DBEF02F02E50C7
:1005D800D8B4F1EF02F0F3EF02F057EF06F02E5027
:1005E8001A24D96E000E1B20DA6E780EDE18D8B4E5
:1005F80000EF03F002EF03F011EF03F02E501A247E
:10060800D96E000E1B20DA6E580EDE18D8A40FEF34
:1006180003F011EF03F057EF06F02E501E6E1F6A1D
:10062800010E1E26000E1F221E501A261F501B22C6
:10063800000E2E6E21EF03F02E2A2E501A24D96EAA
:10064800000E1B20DA6E300EDE18D8B42EEF03F041
:1006580030EF03F020EF03F0000E2E6E2E501A2418
:10066800D96E000E1B20DA6E700EDE18D8B43FEF7C
:1006780003F041EF03F0ADEF04F02E501A24D96EC9
:10068800000E1B20DA6E500EDE18D8A44EEF03F0D1
:1006980050EF03F052EF03F0ADEF04F02E501A24A0
:1006A800D96E000E1B20DA6E2E0EDE18D8A45FEF6E
:1006B80003F061EF03F065EF03F025882E2AADEF14
:1006C80004F02E501A24D96E000E1B20DA6EDF506B
:1006D8001E6E1E50056E066A2EEC48F00550061078
:1006E800D8B479EF03F07BEF03F0E6EF03F0000EE8
:1006F800246E2E501A24D96E000E1B20DA6EDF509D
:100708001E6ED00E1E241F6E206AFF0E202220505F
:1007180007E10A0E1F5CD8B094EF03F096EF03F0E0
:10072800A1EF03F02E501A24D96E000E1B20DA6EAA
:10073800DF50D00F246EB1EF03F02E501A24D96E7B
:10074800000E1B20DA6EDF501E6E1E50036E046A08
:10075800CCEC4AF00350C90F246E29BEBFEF03F05A
:10076800295007E1080E285CD8B0BDEF03F0BFEFB1
:1007780003F0DEEF03F0285007081E6ED8901E36EF
:10078800D8901E3624C01FF0206A216A226A1E2AC9
:10079800D3EF03F0D8901F362036213622361E2E8E
:1007A800CEEF03F01F502A1220502B1221502C128A
:1007B80022502D12284A292A040E2626000E272206
:1007C800F0EF03F0000E1A6E000E1B6E000E1C6E8A
:1007D800000E1D6E50EF09F02E2A32EF03F02E5056
:1007E8001A24D96E000E1B20DA6E700EDE18D8B4EB
:1007F80000EF04F002EF04F0B4EF04F02E501A24D6
:10080800D96E000E1B20DA6E500EDE18D8A40FEF3A
:1008180004F011EF04F013EF04F0B4EF04F02E50DD
:100828001A24D96E000E1B20DA6E300EDE18D8A4FA
:1008380020EF04F022EF04F031EF04F028502910E3
:10084800D8A429EF04F02BEF04F031EF04F0FC0EEC
:100858002626FF0E2722ACEF04F02E501A24D96E5C
:10086800000E1B20DA6EDF501E6E1E50056E066AE3
:100878002EEC48F005500610D8B445EF04F047EFC9
:1008880004F0ACEF04F0000E246E2E501A24D96E3A
:10089800000E1B20DA6EDF501E6ED00E1E241F6E57
:1008A800206AFF0E2022205007E10A0E1F5CD8B0F4
:1008B80060EF04F062EF04F06DEF04F02E501A249C
:1008C800D96E000E1B20DA6EDF50D00F246E7DEF3C
:1008D80004F02E501A24D96E000E1B20DA6EDF5059
:1008E8001E6E1E50036E046ACCEC4AF00350C90F0A
:1008F800246E29BE8BEF04F0295007E1080E285C0E
:10090800D8B089EF04F08BEF04F0AAEF04F0285078
:1009180007081E6ED8901E36D8901E3624C01FF0C9
:10092800206A216A226A1E2A9FEF04F0D8901F3697
:100938002036213622361E2E9AEF04F01F502A1236
:1009480020502B1221502C1222502D12284A292ACD
:100958002E2A25B8B2EF04F0B4EF04F0F3EF03F059
:100968002E501A24D96E000E1B20DA6E700EDE1877
:10097800D8B4C1EF04F0C3EF04F0DCEF04F02E505C
:100988001A24D96E000E1B20DA6E500EDE18D8B469
:10099800D0EF04F0D2EF04F0DCEF04F0000E1A6E92
:1009A800000E1B6E000E1C6E000E1D6E50EF09F03F
:1009B8002E2A2E501A24D96E000E1B20DA6E2B0E0A
:1009C800DE18D8A4EAEF04F0ECEF04F0EFEF04F03F
:1009D8002E2A00EF05F02E501A24D96E000E1B2087
:1009E800DA6E2D0EDE18D8A4FCEF04F0FEEF04F04A
:1009F80000EF05F025862E2A2E501A26000E1B22FF
:100A0800000E2E6E09EF05F02E2A2E501A24D96EEC
:100A1800000E1B20DA6E300EDE18D8B416EF05F083
:100A280018EF05F008EF05F0000E296E000E286E8D
:100A380047EF05F02E50D8B424EF05F026EF05F067
:100A480034EF05F028C001F029C002F0000E046E52
:100A58000A0E036EE8EC4BF001C028F002C029F042
:100A68002E501A24D96E000E1B20DA6EDF501E6E2F
:100A7800D00E1E241F6E206AFF0E20221F5028262B
:100A8800205029222E2A2E501A24D96E000E1B20FF
:100A9800DA6EDF501E6ED00E1E241F6E206AFF0E07
:100AA8002022205009E10A0E1F5CD8A05EEF05F055
:100AB80060EF05F01EEF05F02E50D8A466EF05F0A4
:100AC80068EF05F072EF05F0000E1A6E000E1B6E4F
:100AD800000E1C6E000E1D6E50EF09F025A677EF74
:100AE80005F079EF05F07DEF05F0286C291ED8B0E8
:100AF800292A28502626295027221C501D10D8B4F0
:100B080088EF05F08AEF05F098EF05F02E501A24CB
:100B18001E6E000E1B201F6E1CC0D9FF1DC0DAFF01
:100B28001EC0DEFF1FC0DDFF2A502B102C102D1019
:100B3800D8A4A1EF05F0A3EF05F0ADEF05F0000E86
:100B48001A6E000E1B6E000E1C6E000E1D6E50EF0E
:100B580009F0FF0E2A141E6E000E2B141F6E000ED5
:100B68002C14206E000E2D14216E215020101F1001
:100B780009E1810E1E5CD8A0C4EF05F0C6EF05F0B0
:100B8800D8EF05F0000E2A26010E2B22000E2C228B
:100B9800000E2D22D8EF05F0D8902A362B362C36A9
:100BA8002D362606D8A027062DAEDDEF05F0DFEF9F
:100BB80005F0D0EF05F027AEEBEF05F0830E265CCD
:100BC800FF0E2758D8B0EBEF05F0EDEF05F0F9EF81
:100BD80005F0FF0E276E810E266E000E2A6E000E9F
:100BE8002B6E000E2C6E000E2D6E810E261808E15D
:100BF8002728D8B402EF06F004EF06F00CEF06F051
:100C0800D8902A362B362C362D362606D8A027061D
:100C180027BE18EF06F0275009E1800E265CD8A001
:100C280018EF06F01AEF06F026EF06F0000E2A6E0F
:100C3800000E2B6E000E2C6E000E2D6E000E276E11
:100C4800800E266E090E1E6ED8902D322C322B3255
:100C58002A321E2E28EF06F0FF0E2A16FF0E2B163C
:100C68007F0E2C16000E2D167F0E26241E6E000EEB
:100C780027201F6EFF0E1E14206E216A226A236A27
:100C8800170ED8902036213622362336E82E45EF27
:100C980006F020502A1221502B1222502C122350D9
:100CA8002D122FEF09F025B85CEF06F05EEF06F085
:100CB80070EF06F01AC0D9FF1BC0DAFF2E0EDE183F
:100CC800D8A469EF06F06BEF06F070EF06F0258800
:100CD8001A4A1B2A57EF06F01AC0D9FF1BC0DAFFC1
:100CE800DF501E6ED00E1E241F6E206AFF0E2022BB
:100CF800205009E10A0E1F5CD8A085EF06F087EFA7
:100D080006F089EF06F0D7EF06F02582090E2818BD
:100D18002910D8B492EF06F094EF06F0CAEF06F067
:100D280025A899EF06F09BEF06F09EEF06F0260641
:100D3800D8A02706284A292A2AC001F02BC002F089
:100D48002CC003F02DC004F00A0E056E000E066ECE
:100D5800000E076E000E086E9BEC46F001C02AF0EC
:100D680002C02BF003C02CF004C02DF01AC0D9FF2C
:100D78001BC0DAFFDF501E6ED00E1E261E502A261C
:100D8800000E2B222C222D22D3EF06F025B8CFEF10
:100D980006F0D1EF06F0D3EF06F0264A272A1A4AC2
:100DA8001B2A57EF06F0000E296E000E286E1AC097
:100DB800D9FF1BC0DAFF650EDE18D8B4E6EF06F0DF
:100DC800E8EF06F0F5EF06F01AC0D9FF1BC0DAFF0E
:100DD800450EDE18D8A4F3EF06F0F5EF06F0B4EFF1
:100DE80007F01A4A1B2A1AC0D9FF1BC0DAFF2D0EBA
:100DF800DE18D8A402EF07F004EF07F009EF07F0B8
:100E080025861A4A1B2A18EF07F01AC0D9FF1BC0FB
:100E1800DAFF2B0EDE18D8A414EF07F016EF07F050
:100E280018EF07F01A4A1B2A1AC0D9FF1BC0DAFFAD
:100E3800300EDE18D8B423EF07F025EF07F016EFD1
:100E480007F01AC0D9FF1BC0DAFFDF501E6ED00EA4
:100E58001E241F6E206AFF0E2022205007E10A0E72
:100E68001F5CD8B03AEF07F03CEF07F0A9EF07F0A6
:100E78001AC0D9FF1BC0DAFFDF501E6ED00E1E2627
:100E88001E50286E296A1A4A1B2A1AC0D9FF1BC08D
:100E9800DAFFDF501E6ED00E1E241F6E206AFF0E72
:100EA8002022205007E10A0E1F5CD8B05EEF07F041
:100EB80060EF07F0A9EF07F01AC0D9FF1BC0DAFFEF
:100EC800DF501E6ED00E1E2628C001F029C002F089
:100ED800000E046E0A0E036EE8EC4BF01E5001245F
:100EE800286E000E0220296E1A4A1B2A1AC0D9FF42
:100EF8001BC0DAFFDF501E6ED00E1E241F6E206A44
:100F0800FF0E2022205007E10A0E1F5CD8B08FEF99
:100F180007F091EF07F0A9EF07F01AC0D9FF1BC03F
:100F2800DAFFDF501E6ED00E1E2628C001F029C041
:100F380002F0000E046E0A0E036EE8EC4BF01E5031
:100F48000124286E000E0220296E25A6AEEF07F0B8
:100F5800B0EF07F0B4EF07F0286C291ED8B0292AA3
:100F680028502626295027221C501D10D8B4BFEF20
:100F780007F0C1EF07F0D0EF07F025A2C6EF07F0A2
:100F8800C8EF07F0D0EF07F01CC0D9FF1DC0DAFF8B
:100F98001AC0DEFF1BC0DDFF2AC001F02BC002F023
:100FA8002CC003F02DC004F0000E75EC34F001C025
:100FB8002AF002C02BF003C02CF004C02DF02AC088
:100FC80001F02BC002F02CC003F02DC004F0000E7D
:100FD800056E000E066E000E076E000E086EA3EC7E
:100FE80043F0D8A0FAEF07F0FCEF07F006EF08F09F
:100FF800000E1A6E000E1B6E000E1C6E000E1D6E8B
:1010080050EF09F027BE0DEF08F00BEF08F09BEF4B
:1010180008F0266C271ED8B0272A31EF08F02AC01E
:1010280001F02BC002F02CC003F02DC004F0F90E23
:10103800056E020E066E150E076E500E086EE3EC76
:1010480028F001C02AF002C02BF003C02CF004C025
:101058002DF0F60E2626FF0E272227BE3FEF08F0BA
:10106800275007E10A0E265CD8B03DEF08F03FEFA5
:1010780008F013EF08F05EEF08F02AC001F02BC06B
:1010880002F02CC003F02DC004F0000E056E000E17
:10109800066E200E076E410E086EE3EC28F001C0C4
:1010A8002AF002C02BF003C02CF004C02DF0260655
:1010B800D8A0270626502710D8A465EF08F067EFB8
:1010C80008F041EF08F02AC001F02BC002F02CC054
:1010D80003F02DC004F0000E056E000E066E800EA3
:1010E800076E000E086E4EEC3DF0D8B07EEF08F0AB
:1010F80080EF08F02FEF09F025A085EF08F087EFC3
:1011080008F091EF08F0000E1A6E000E1B6E800EAC
:101118001C6E800E1D6E50EF09F0000E1A6E000E48
:101128001B6E800E1C6E000E1D6E50EF09F027BE60
:10113800A6EF08F0275008E12604D8A0A6EF08F08B
:10114800A8EF08F02FEF09F0C8EF08F02AC001F067
:101158002BC002F02CC003F02DC004F0F90E056E70
:10116800020E066E150E076E500E086EF1EC24F096
:1011780001C02AF002C02BF003C02CF004C02DF0EF
:10118800F60E2626FF0E2722275007E10A0E265CB8
:10119800D8B0D1EF08F0D3EF08F0AAEF08F0F2EFDB
:1011A80008F02AC001F02BC002F02CC003F02DC0BB
:1011B80004F0000E056E000E066E200E076E410E3E
:1011C800086EF1EC24F001C02AF002C02BF003C035
:1011D8002CF004C02DF02606D8A02706265027108C
:1011E800D8A4F9EF08F0FBEF08F0D5EF08F0FF0EF0
:1011F800016EFF0E026E7F0E036E7F0E046E2AC014
:1012080005F02BC006F02CC007F02DC008F04EECFE
:101218003DF0D8B012EF09F014EF09F02FEF09F004
:1012280025A019EF09F01BEF09F025EF09F0000ED2
:101238001A6E000E1B6E800E1C6E800E1D6E50EF17
:1012480009F0000E1A6E000E1B6E800E1C6E000E4A
:101258001D6E50EF09F025A034EF09F036EF09F0C4
:1012680048EF09F02AC001F02BC002F02CC003F0AF
:101278002DC004F004EC4BF001C02AF002C02BF0A2
:1012880003C02CF004C02DF02AC01AF02BC01BF0AC
:101298002CC01CF02DC01DF0120022EE00F0C70E6D
:1012A800DE6AE806FDE222EEC8F0090EDE6AE8060C
:1012B800FDE2000E0101FC6F280E00018B6F040E89
:1012C8008C6F0D0E8D6FFF0E8E6F000E906F0A0ED5
:1012D8008F6FF8EC38F000018B518C11D8A477EFA0
:1012E80009F079EF09F04FEF0AF0000E0201D26F12
:1012F80043EF0AF0490E00018F6FFC0E906F3FEC30
:1013080044F0000E00018F6F020E906F720E916F05
:10131800FF0E926FFEEC47F0000E0001996F020E6F
:101328009A6F090E9B6FFE0E9C6FADEC4BF0000E92
:101338000001996F020E9A6F0201D251090D000E39
:10134800F32400019B6F060EF4209C6FADEC4BF06C
:10135800000E0001996F020E9A6FF40E9B6FFF0E3C
:101368009C6FADEC4BF0000E0001996F020E9A6F66
:10137800590E9B6FFE0E9C6FADEC4BF0000E0001FA
:10138800996F020E9A6F0201D251090D000EF324D3
:1013980000019B6F070EF4209C6FADEC4BF0000E24
:1013A8000001996F020E9A6F680E9B6FFD0E9C6F7D
:1013B800ADEC4BF0000E0001996F020E9A6FA50E6E
:1013C8009B6FFE0E9C6FADEC4BF0D2C23AF101015F
:1013D8003B6BC80E3C6F020E3D6F01EC41F0000EF6
:1013E8000001996F020E9A6FC80E9B6F020E9C6FD8
:1013F800ADEC4BF0000E0001996F020E9A6FCB0E08
:101408009B6FFD0E9C6FADEC4BF0000E00018F6FD3
:10141800020E906F0201D251090D000EF324000153
:10142800916F090EF420926F000E946F060E936F61
:1014380048EC45F0000E0001996F020E9A6FF50E08
:101448009B6FFD0E9C6FADEC4BF0000E0001996F89
:10145800020E9A6F0201D251090D000EF324000109
:101468009B6F080EF4209C6FADEC4BF0000E000152
:101478008F6F020E906F3FEC44F00201D22BD251D5
:101488000101FE5DD8B04BEF0AF04DEF0AF07EEF98
:1014980009F0CDEF0EF0280E8B6F040E8C6F8D0EB9
:1014A8008D6FFF0E8E6F000E906F060E8F6FF8EC2B
:1014B80038F000018B518C11D8A465EF0AF067EF62
:1014C8000AF027EF0DF0000E8F6F020E906F720E6C
:1014D800916FFF0E926FFEEC47F0000E0001996FBE
:1014E800020E9A6F090E9B6FFE0E9C6FADEC4BF0CF
:1014F800F7C13AF1F8C13BF1C80E01013C6F020E89
:101508003D6F01EC41F00101FE51090D000EF3247D
:1015180000018F6F060EF420906FC80E916F020EB7
:10152800926FFEEC47F0000E0001996F020E9A6F61
:10153800C80E9B6F020E9C6FADEC4BF0000E0001C5
:10154800996F020E9A6FF40E9B6FFF0E9C6FADECB5
:101558004BF0000E0001996F020E9A6F590E9B6FA7
:10156800FE0E9C6FADEC4BF0F5C13AF1F6C13BF1C4
:10157800C80E01013C6F020E3D6F01EC41F0010104
:10158800FE51090D000EF32400018F6F070EF420A1
:10159800906FC80E916F020E926FFEEC47F0000E2E
:1015A8000001996F020E9A6FC80E9B6F020E9C6F16
:1015B800ADEC4BF0000E0001996F020E9A6F680EA9
:1015C8009B6FFD0E9C6FADEC4BF0000E0001996F08
:1015D800020E9A6FA50E9B6FFE0E9C6FADEC4BF042
:1015E800FEC13AF101013B6BC80E3C6F020E3D6F24
:1015F80001EC41F0000E0001996F020E9A6FC80EBF
:101608009B6F020E9C6FADEC4BF0000E0001996FC2
:10161800020E9A6FE00E9B6FFD0E9C6FADEC4BF0C7
:10162800000E00018F6F020E906FDB0E916F030E9C
:10163800926F000E946F060E936F48EC45F0000E03
:101648000001996F020E9A6FCB0E9B6FFD0E9C6F77
:10165800ADEC4BF00101FE51090D000EF324000121
:101668008F6F090EF420906FE50E916F030E926F45
:10167800FEEC47F0000E00018F6F020E906FE50E32
:10168800916F030E926F000E946F060E936F48ECE5
:1016980045F0000E0001996F020E9A6FC80E9B6FFD
:1016A800FC0E9C6FADEC4BF0F1C199F0F2C19AF0D1
:1016B800F3C19BF0F4C19CF0C80E00019D6F020EAF
:1016C8009E6F8CEC39F0C80E0001976F020E986F70
:1016D80098EC42F0000E0001996F020E9A6FC80E46
:1016E8009B6F020E9C6FADEC4BF0000E0001996FE2
:1016F800020E9A6FED0E9B6FFF0E9C6FADEC4BF0D8
:10170800EDC199F0EEC19AF0EFC19BF0F0C19CF0E9
:10171800C80E00019D6F020E9E6F8CEC39F0C80E4A
:101728000001976F020E986F98EC42F0000E0001CE
:10173800996F020E9A6FC80E9B6F020E9C6FADECEC
:101748004BF0000E0001996F020E9A6FF20E9B6F1C
:10175800FF0E9C6FADEC4BF0000E00018F6F020E78
:10176800906F3FEC44F0000E00018F6F020E906FF7
:10177800B40E916FFE0E926FFEEC47F0B0C099F078
:10178800B1C09AF0B2C09BF0B3C09CF0C80E000183
:101798009D6F020E9E6F8CEC39F0C80E0001976F9A
:1017A800020E986F98EC42F0000E0001996F020E3D
:1017B8009A6FC80E9B6F020E9C6FADEC4BF0000E3B
:1017C8000001996F020E9A6FED0E9B6FFF0E9C6FD2
:1017D800ADEC4BF0ACC099F0ADC09AF0AEC09BF048
:1017E800AFC09CF0C80E00019D6F020E9E6F8CEC7E
:1017F80039F0C80E0001976F020E986F98EC42F00E
:10180800000E0001996F020E9A6FC80E9B6F020EB0
:101818009C6FADEC4BF0000E0001996F020E9A6FB1
:10182800F20E9B6FFF0E9C6FADEC4BF0000E0001AB
:101838008F6F020E906F3FEC44F0000E0201D26FE2
:10184800000E00018F6F020E906FC20E916FFE0E98
:10185800926FFEEC47F0000E01013A6F020E3B6FEB
:101868000201D251310F01013C6F84EC45F0000EAA
:101878000001996F020E9A6F050E9B6FFE0E9C6F0A
:10188800ADEC4BF0000E0001996F020E9A6FC00E7E
:101898009B6FFE0E9C6FADEC4BF00201D251080D10
:1018A800D70EF324D96E020EF420DA6EDECF99F04B
:1018B800DECF9AF0DECF9BF0DECF9CF0C80E0001A1
:1018C8009D6F020E9E6F8CEC39F0C80E0001976F69
:1018D800020E986F98EC42F0000E0001996F020E0C
:1018E8009A6FC80E9B6F020E9C6FADEC4BF0000E0A
:1018F8000001996F020E9A6FED0E9B6FFF0E9C6FA1
:10190800ADEC4BF00201D251080DD30EF324D96E81
:10191800020EF420DA6EDECF99F0DECF9AF0DECF39
:101928009BF0DECF9CF0C80E00019D6F020E9E6FEB
:101938008CEC39F0C80E0001976F020E986F98EC86
:1019480042F0000E0001996F020E9A6FC80E9B6F4D
:10195800020E9C6FADEC4BF0000E0001996F020E69
:101968009A6FF20E9B6FFF0E9C6FADEC4BF0000E62
:1019780000018F6F020E906F3FEC44F00201D22BF2
:10198800030ED265CAEF0CF0CCEF0CF024EF0CF08C
:10199800000E0101966F020E976F000E986FFD0EF4
:1019A800996FC0C09AF1C1C09BF1C2C09CF1C3C07D
:1019B8009DF1E3EC48F0000E00018F6F020E906F6E
:1019C8003FEC44F0000E0101966F020E976F510E26
:1019D800986FFD0E996FC4C09AF1C5C09BF1C6C03F
:1019E8009CF1C7C09DF1E3EC48F0C4C032F1C5C01A
:1019F80033F1C6C034F1C7C035F1ACEC3AF032C1AE
:101A08003AF133C13BF1C80E01013C6F020E3D6F44
:101A180001EC41F00101FE51090D000EF324000113
:101A28008F6F080EF420906FC80E916F020E926FA0
:101A3800FEEC47F0000E00018F6F020E906F3FEC36
:101A480044F0CDEF0EF0280E8B6F040E8C6F7B0EDA
:101A58008D6FFF0E8E6F000E906F080E8F6FF8EC73
:101A680038F000018B518C11D8A43DEF0DF03FEFF9
:101A78000DF050EF0DF08B0E8F6FFC0E906F3FEC5A
:101A880044F021EEEDF010EEACF0070EDBCFE3FFF3
:101A9800E806FCE2CDEF0EF0280E8B6F040E8C6F7B
:101AA800AB0E8D6FFF0E8E6F000E906F060E8F6F50
:101AB800F8EC38F000018B518C11D8A466EF0DF0CA
:101AC80068EF0DF079EF0DF0E40E8F6FFC0E906F5C
:101AD8003FEC44F020EEACF012EEEBF0070EDBCF5B
:101AE800E3FFE806FCE2CDEF0EF0280E8B6F040E44
:101AF8008C6F2E0E8D6FFF0E8E6F000E906F090E7D
:101B08008F6FF8EC38F000018B518C11D8A48FEF4F
:101B18000DF091EF0DF0A2EF0DF0830E8F6FFD0E1B
:101B2800906F3FEC44F0B0EC2AF022EED3F0070EB1
:101B3800EBCFDBFFE806FCE2CDEF0EF0280E8B6F53
:101B4800040E8C6F380E8D6FFF0E8E6F000E906F27
:101B5800090E8F6FF8EC38F000018B518C11D8A466
:101B6800B8EF0DF0BAEF0DF0CBEF0DF09B0E8F6FC5
:101B7800FD0E906F3FEC44F0B0EC2AF022EEDBF063
:101B8800070EEBCFDBFFE806FCE2CDEF0EF0280EE8
:101B98008B6F040E8C6F420E8D6FFF0E8E6F000ED2
:101BA800906F090E8F6FF8EC38F000018B518C1193
:101BB800D8A4E1EF0DF0E3EF0DF0F4EF0DF0B30E64
:101BC8008F6FFD0E906F3FEC44F0B0EC2AF022EEE0
:101BD800E3F0070EEBCFDBFFE806FCE2CDEF0EF0FB
:101BE800280E8B6F040E8C6FDD0E8D6FFE0E8E6FC0
:101BF800000E906F0B0E8F6FF8EC38F000018B51D0
:101C08008C11D8A40AEF0EF00CEF0EF01DEF0EF0B9
:101C1800370E8F6FFD0E906F3FEC44F0B0EC2AF05A
:101C280022EEEBF0070EEBCFDBFFE806FCE2CDEF90
:101C38000EF0280E8B6F040E8C6FBF0E8D6FFF0E8B
:101C48008E6F000E906F050E8F6FF8EC38F0000164
:101C58008B518C11D8A433EF0EF035EF0EF03DEF19
:101C68000EF0320E8F6FFE0E906F3FEC44F0CDEF0A
:101C78000EF0280E8B6F040E8C6FD00E8D6FFF0E3A
:101C88008E6F000E906F040E8F6FF8EC38F0000125
:101C98008B518C11D8A453EF0EF055EF0EF05DEF79
:101CA8000EF01E0E8F6FFE0E906F3FEC44F0CDEFDE
:101CB8000EF0280E8B6F040E8C6FCB0E8D6FFF0EFF
:101CC8008E6F000E906F040E8F6FF8EC38F00001E5
:101CD8008B518C11D8A473EF0EF075EF0EF07DEFD9
:101CE8000EF06B0E8F6FFD0E906F3FEC44F0CDEF52
:101CF8000EF0280E8B6F040E8C6FA40E8D6FFF0EE6
:101D08008E6F000E906F060E8F6FF8EC38F00001A2
:101D18008B518C11D8A493EF0EF095EF0EF09DEF38
:101D28000EF01D0E8F6FFD0E906F3FEC44F0CDEF5F
:101D38000EF0280E8B6F040E8C6F9D0E8D6FFF0EAC
:101D48008E6F000E906F060E8F6FF8EC38F0000162
:101D58008B518C11D8A4B3EF0EF0B5EF0EF0C7EF8E
:101D68000EF089A0BAEF0EF0BEEF0EF0AB6BAB2B06
:101D7800C0EF0EF00001AB6B8950AB19FE0BAB192D
:101D8800896ECDEF0EF06C0E8F6FFC0E906F3FECEE
:101D980044F01200000E0101646F3CC165F13DC1C1
:101DA80066F13EC167F13FC168F168BFE0EF0EF030
:101DB800DEEF0EF0F4EF0EF0010E646F65C18BF0EC
:101DC80066C18CF067C18DF068C18EF0AFEC4AF047
:101DD8008BC065F18CC066F18DC067F18EC068F16B
:101DE800000E01016A6F000E696FCAC054F1CBC0C2
:101DF80055F16451D8B403EF0FF005EF0FF019EF68
:101E08000FF06451D8A40BEF0FF00DEF0FF013EFA4
:101E18000FF0000E4A6F2B0E496F17EF0FF0000EF0
:101E28004A6F2D0E496F49C164F165C18BF066C1D7
:101E38008CF067C18DF068C18EF0D0EC3DF00001E8
:101E48008B058C11D8A42BEF0FF02DEF0FF064EF5A
:101E58000FF001016451D8B434EF0FF036EF0FF0F2
:101E68003FEF0FF064C18CF45407D8A05507000E5B
:101E78006A6F010E696F8C0E692500018F6F040E61
:101E880001016A210001906FD90E916FFF0E926FC8
:101E9800FEEC47F00101FD0E5427FF0E55233AC111
:101EA8009BF03BC19CF08C0E00019D6F040E9E6F51
:101EB80054C19FF055C1A0F009EC45F0FCEF13F0B8
:101EC80065C18BF066C18CF067C18DF068C18EF07A
:101ED800D0EC3DF000018B518C11D8A476EF0FF0B7
:101EE80078EF0FF09BEF0FF001016451D8B47FEF4A
:101EF8000FF081EF0FF08AEF0FF064C18CF45407F4
:101F0800D8A05507000E6A6F010E696F8C0E6925FF
:101F180000018F6F040E01016A210001906FDD0E30
:101F2800916FFF0E926FFEEC47F04EEF0FF0000E30
:101F380001016B6F000E6C6F800E6D6F3F0E6E6F40
:101F4800000E536F000E526F65C18BF066C18CF0A6
:101F580067C18DF068C18EF0000E00018F6F000E12
:101F6800906F000E916F000E926F4DEC43F00001E0
:101F7800D8B0C1EF0FF0C3EF0FF0BCEF10F0D0EF07
:101F88000FF056C16BF157C16CF158C16DF159C1D1
:101F98006EF10101524B532B6BC199F06CC19AF051
:101FA8006DC19BF06EC19CF0000E00019D6F000E8C
:101FB8009E6F200E9F6F410EA06F94EC22F099C087
:101FC80056F19AC057F19BC058F19CC059F10101D4
:101FD8005651655D00018B6F01015751665900012B
:101FE8008C6F01015851675900018D6F01015951DA
:101FF800685900018E6FD0EC46F000018EBF10EFDB
:1020080010F08E518D118C1109E1020E8B5DD8A054
:1020180010EF10F012EF10F0C5EF0FF056C10DF1F0
:1020280057C10EF158C10FF159C110F165C111F135
:1020380066C112F167C113F168C114F163EC38F09D
:102048000101D8A02AEF10F02CEF10F0C5EF0FF027
:102058006B51655D00018B6F01016C516659000180
:102068008C6F01016D51675900018D6F01016E512F
:10207800685900018E6FD0EC46F000018EBF52EF18
:1020880010F08E518D118C1107E1020E8B5DD8B0C6
:1020980050EF10F052EF10F0A2EF10F06BC165F1A5
:1020A8006CC166F16DC167F16EC168F1BCEF10F0EB
:1020B8006BC10DF16CC10EF16DC10FF16EC110F164
:1020C800000E116F000E126F200E136F410E146F69
:1020D80006EC27F00DC16BF10EC16CF10FC16DF16B
:1020E80010C16EF101015207D8A053076B51655D0D
:1020F80000018B6F01016C51665900018C6F010161
:102108006D51675900018D6F01016E5168590001C9
:102118008E6FD0EC46F000018EBFA0EF10F08E510C
:102128008D118C1107E1020E8B5DD8B09EEF10F077
:10213800A0EF10F0A2EF10F052EF10F065C10DF112
:1021480066C10EF167C10FF168C110F16BC111F1E1
:102158006CC112F16DC113F16EC114F163EC38F06A
:102168000101D8A0BAEF10F0BCEF10F05CEF10F04E
:1021780040C14CF14CC14DF10001CDBFC6EF10F08C
:10218800C8EF10F0CEEF10F0CCC045F1CDC046F14D
:10219800D3EF10F0000E0101466F060E456F45C1E2
:1021A80050F146C151F10101504B512B660E4D19AA
:1021B800D8A4E1EF10F0E3EF10F003EF11F053BFF4
:1021C800EAEF10F0E8EF10F0F6EF10F0000E6B6F8A
:1021D800000E6C6F800E6D6F3F0E6E6F000E536FAA
:1021E800000E526F670E4C19D8B4FDEF10F0FFEFD8
:1021F80010F003EF11F05251502753515123000EA4
:102208005B6F000E5A6F65C15CF166C15DF167C115
:102218005EF168C15FF16BC156F16CC157F16DC1D8
:1022280058F16EC159F195EF11F05CC10DF15DC126
:102238000EF15EC10FF15FC110F16BC111F16CC1FC
:1022480012F16DC113F16EC114F106EC27F00DC146
:1022580022F10EC123F10FC124F110C125F1B4EC14
:102268002FF022C160F123C161F124C162F125C1BF
:1022780063F160C132F161C133F162C134F163C10C
:1022880035F1ACEC3AF032C14EF133C14FF15CC1DB
:1022980032F15DC133F15EC134F15FC135F160C126
:1022A8009DF061C19EF062C19FF063C1A0F06BC157
:1022B80099F06CC19AF06DC19BF06EC19CF094ECE2
:1022C80022F099C036F19AC037F19BC038F19CC012
:1022D80039F1CEEC49F032C15CF133C15DF134C162
:1022E8005EF135C15FF16BC10DF16CC10EF16DC1CD
:1022F8000FF16EC110F1000E0101116F000E126F87
:10230800200E136F410E146F06EC27F00DC16BF110
:102318000EC16CF10FC16DF110C16EF101015A4B84
:102328005B2B50515A5D5B51800A416F5151800AB5
:102338004159D8A0A2EF11F0A4EF11F019EF11F054
:102348006BC199F06CC19AF06DC19BF06EC19CF0A5
:10235800000E00019D6F000E9E6FA00E9F6F400E35
:10236800A06F94EC22F099C060F19AC061F19BC013
:1023780062F19CC063F15CC10DF15DC10EF15EC1FB
:102388000FF15FC110F160C111F161C112F162C1B9
:1023980013F163C114F163EC38F00101D8B0D7EF41
:1023A80011F0D9EF11F0E3EF11F0000E606F000E9D
:1023B800616F000E626F000E636F0DEF12F05CC16B
:1023C8008BF05DC18CF05EC18DF05FC18EF060C195
:1023D8008FF061C190F062C191F063C192F04DEC51
:1023E80043F00001D8A0FBEF11F0FDEF11F00DEF65
:1023F80012F001014EB103EF12F005EF12F00DEFEC
:1024080012F0000E606F000E616F000E626F000E1A
:10241800636F65C122F166C123F167C124F168C108
:1024280025F160C126F161C127F162C128F163C1BC
:1024380029F133EC20F022C15CF123C15DF124C104
:102448005EF125C15FF15CC10DF15DC10EF15EC1A8
:102458000FF15FC110F1000E00019D6F000E9E6F1D
:10246800200E9F6F410EA06F56C199F057C19AF088
:1024780058C19BF059C19CF094EC22F099C011F11D
:102488009AC012F19BC013F19CC014F163EC38F0B0
:102498000101D8A052EF12F054EF12F07DEF12F0C4
:1024A800524B532B56C199F057C19AF058C19BF023
:1024B80059C19CF0000E00019D6F000E9E6F200E0A
:1024C8009F6F410EA06F94EC22F099C056F19AC00C
:1024D80057F19BC058F19CC059F1660E01014D1986
:1024E800D8A479EF12F07BEF12F07DEF12F0504B89
:1024F800512B56C16BF157C16CF158C16DF159C1DF
:102508006EF152C143F153C144F1000E4B6F000EFE
:10251800486F000E476F000E5B6F000E5A6F7BEF1F
:1025280013F05CC10DF15DC10EF15EC10FF15FC129
:1025380010F16BC111F16CC112F16DC113F16EC1D3
:1025480014F106EC27F00DC122F10EC123F10FC1E1
:1025580024F110C125F1B4EC2FF022C160F123C1A0
:1025680061F124C162F125C163F160C132F161C139
:1025780033F162C134F163C135F1ACEC3AF00101D9
:1025880033BFD2EF12F0335107E10A0E325DD8B0F3
:10259800D0EF12F0D2EF12F0E2EF12F060C132F198
:1025A80061C133F162C134F163C135F1ACEC3AF089
:1025B80032C14EF133C14FF1E6EF12F0000E4F6F0A
:1025C800090E4E6F01014B51D8A4EDEF12F0EFEF59
:1025D80012F017EF13F044BFF6EF12F0F4EF12F019
:1025E80017EF13F08C0E6925D96E040E6A21DA6E86
:1025F8002E0EDF6E694B6A2B5407D8A05507010EC3
:102608004B6F17EF13F08C0E6925D96E040E6A21F3
:10261800DA6E300EDF6E694B6A2B5407D8A0550767
:102628004707D8A0480747514811D8A41EEF13F010
:1026380020EF13F007EF13F08C0E6925D96E040E06
:102648006A21DA6E4E51300FDF6E694B6A2B5407E0
:10265800D8A055075CC132F15DC133F15EC134F1D8
:102668005FC135F160C19DF061C19EF062C19FF00C
:1026780063C1A0F06BC199F06CC19AF06DC19BF079
:102688006EC19CF094EC22F099C036F19AC037F1F3
:102698009BC038F19CC039F1CEEC49F032C15CF1F5
:1026A80033C15DF134C15EF135C15FF16BC10DF12C
:1026B8006CC10EF16DC10FF16EC110F1000E010178
:1026C800116F000E126F200E136F410E146F06EC7F
:1026D80027F00DC16BF10EC16CF10FC16DF110C186
:1026E8006EF101014307D8A044075A4B5B2B5051A8
:1026F8005A5D5B51800A416F5151800A4159D8B0E7
:1027080088EF13F08AEF13F098EF13F06ABF96EF93
:1027180013F06A5109E14B0E695DD8A096EF13F0EA
:1027280098EF13F095EF12F0000E5B6F4F0E5A6F93
:102738008C0E5A25D96E040E5B21DA6E000EDF6E00
:102748008C0E416F040E426F6951415F6A51425BC2
:102758005A51412500018B6F01015B514221000153
:102768008C6F8C0E8D6F040E8E6F69C18FF06AC1ED
:1027780090F035EC49F0010169515A5D696F6A5171
:102788005B596A6F6451D8A4CCEF13F0CFEF13F004
:10279800010ED0EF13F0000E5A6F5B6B6451D8B482
:1027A800D8EF13F0DAEF13F0E5EF13F06907D8A0CC
:1027B8006A078C0E6925D96E040E6A21DA6E64C127
:1027C800DFFF5A51545F5B51555B3AC19BF03BC1E7
:1027D8009CF08C0E692500019D6F040E01016A2191
:1027E80000019E6F54C19FF055C1A0F009EC45F05F
:1027F80012003BC3DBF121EEB3F0270EDE6AE806D8
:10280800FDE221EEDCF0080EDE6AE806FDE23B0E92
:1028180000018B6F030E8C6F840E8D6FFF0E8E6F11
:10282800BEEC45F000018B518C11D8B41EEF14F0AA
:1028380020EF14F00DEF18F03B0E8B6F030E8C6F2A
:10284800C50E8D6FFF0E8E6F000E906F050E8F6F89
:10285800F8EC38F000018B518C11D8A436EF14F045
:1028680038EF14F0C3EF17F0E50E8F6FFF0E906F7F
:1028780050EC3EF0C3EF17F0DC0E00018F6F010E35
:10288800906FC20E916FFF0E926FFEEC47F0DC0E58
:1028980001013A6F010E3B6FF7C13CF184EC45F042
:1028A800DC0E0001996F010E9A6FFA0E9B6FFF0EF6
:1028B8009C6FADEC4BF0DC0E01013A6F010E3B6FE3
:1028C800F5C13CF184EC45F0DC0E0001996F010E76
:1028D8009A6FF80E9B6FFF0E9C6FADEC4BF0DC0E01
:1028E80001013A6F010E3B6FC4C032F1C5C033F12C
:1028F800C6C034F1C7C035F1ACEC3AF00101325131
:102908003C6F84EC45F0DC0E01013A6F010E3B6F21
:10291800FE51140F3C6F84EC45F0DC0E00018F6F04
:10292800010E906F3FEC44F0DC0E00018F6F010E3A
:10293800906F50EC3EF00101FE51090DC80EF324D2
:1029480000018F6F0A0EF420906FDC0E916F010E5C
:10295800926FFEEC47F0020E0101B26F040EB16FE8
:10296800BA0EE82EFED7B12FFCD7B22FFAD700F057
:10297800DC0E00018F6F010E906FCE0E916FFF0E6F
:10298800926FFEEC47F0EDC1ABF1EEC1ACF1EFC1D7
:10299800ADF1F0C1AEF1DC0E0101AF6F010EB06F09
:1029A80056EC4AF0DC0E00018F6F010E906F50EC70
:1029B8003EF0020E0101B26F040EB16FBA0EE82E9E
:1029C800FED7B12FFCD7B22FFAD700F0DC0E0001EA
:1029D8008F6F010E906FF60E916FFF0E926FFEECE7
:1029E80047F0F1C1ABF1F2C1ACF1F3C1ADF1F4C103
:1029F800AEF1DC0E0101AF6F010EB06F56EC4AF07C
:102A0800DC0E00018F6F010E906F50EC3EF00DEF61
:102A180018F0000EE56F2BEF15F0E551090DC80E03
:102A2800F32400018F6F0A0EF420906F50EC3EF0F3
:102A3800020E0101B26F040EB16FBA0EE82EFED776
:102A4800B12FFCD7B22FFAD700F00101E52BE551E1
:102A5800FE5DD8B032EF15F034EF15F011EF15F038
:102A68000DEF18F021EEEDF010EEACF0070EDBCF15
:102A7800E3FFE806FCE2100E0101B26F390EB16FF8
:102A88000D0EE82EFED7B12FFCD7B22FFAD700D003
:102A9800DC0E00018F6F010E906FCE0E916FFF0E4E
:102AA800926FFEEC47F0ACC0ABF1ADC0ACF1AEC07C
:102AB800ADF1AFC0AEF1DC0E0101AF6F010EB06F2A
:102AC80056EC4AF0DC0E00018F6F010E906F50EC4F
:102AD8003EF0020E0101B26F040EB16FBA0EE82E7D
:102AE800FED7B12FFCD7B22FFAD700F0DC0E0001C9
:102AF8008F6F010E906FF60E916FFF0E926FFEECC6
:102B080047F0B0C0ABF1B1C0ACF1B2C0ADF1B3C0E9
:102B1800AEF1DC0E0101AF6F010EB06F56EC4AF05A
:102B280004EF15F020EEACF012EEEBF0070EDBCF61
:102B3800E3FFE806FCE2100E0101B26F390EB16F37
:102B48000D0EE82EFED7B12FFCD7B22FFAD700D042
:102B5800DC0E00018F6F010E906FCE0E916FFF0E8D
:102B6800926FFEEC47F0EBC2ABF1ECC2ACF1EDC2F8
:102B7800ADF1EEC2AEF1DC0E0101AF6F010EB06F28
:102B880056EC4AF0DC0E00018F6F010E906F50EC8E
:102B98003EF0020E0101B26F040EB16FBA0EE82EBC
:102BA800FED7B12FFCD7B22FFAD700F0DC0E000108
:102BB8008F6F010E906FF60E916FFF0E926FFEEC05
:102BC80047F0EFC2ABF1F0C2ACF1F1C2ADF1F2C225
:102BD800AEF1DC0E0101AF6F010EB06F56EC4AF09A
:102BE80004EF15F06C0E00018F6FFE0E906F3FEC36
:102BF80044F0010E0101FA6F0DEF18F07F0E00018D
:102C08008F6FFE0E906F3FEC44F0020E0101FA6FD9
:102C18000DEF18F0920E00018F6FFE0E906F3FECD3
:102C280044F0030E0101FA6F0DEF18F0450E000194
:102C38008F6FFE0E906F3FEC44F0040E0101FA6FA7
:102C48000DEF18F0FA51D8B42CEF16F02EEF16F05D
:102C58000DEF18F0050EFA6134EF16F036EF16F0A6
:102C68000DEF18F03B0E126F030E136FF2EC49F0E4
:102C78000101FA51B16FB26BD890B137B237D89021
:102C8800B137B237D890B137B237CF0EB125D96E38
:102C9800020EB221DA6E12C1DEFF13C1DEFF14C1CB
:102CA800DEFF15C1DEFFFA51B16FB26BD890B137B4
:102CB800B237D890B137B237D890B137B237CF0ED4
:102CC800B125D96E020EB221DA6EDECF99F0DECFD1
:102CD8009AF0DECF9BF0DECF9CF0B30E00019D6F23
:102CE800010E9E6F8CEC39F0230E00018F6FFF0EE2
:102CF800906F3FEC44F0B30E00018F6F010E906FA0
:102D08003FEC44F00DEF18F0FA51D8B48EEF16F0FE
:102D180090EF16F0E8EF16F0050EFA6196EF16F050
:102D280098EF16F0E8EF16F03B0E126F030E136FD4
:102D3800F2EC49F00101FA51B16FB26BD890B1379A
:102D4800B237D890B137B237D890B137B237CB0E47
:102D5800B125D96E020EB221DA6E12C1DEFF13C19F
:102D6800DEFF14C1DEFF15C1DEFFFA51B16FB26B91
:102D7800D890B137B237D890B137B237D890B13789
:102D8800B237CB0EB125D96E020EB221DA6EDECF84
:102D980099F0DECF9AF0DECF9BF0DECF9CF0B30E39
:102DA80000019D6F010E9E6F8CEC39F0F50E00014D
:102DB8008F6FFE0E906F3FEC44F0B30E00018F6FE3
:102DC800010E906F3FEC44F0000E0101FA6F0DEF19
:102DD80018F0010EFF6F310E00018F6FFE0E906F1D
:102DE8003FEC44F00DEF18F0000EFF6F1D0E0001D0
:102DF8008F6FFE0E906F3FEC44F00DEF18F0000E51
:102E0800EC6F000E0001B86F000EB96F000EBA6FBC
:102E1800000EBB6FB8C0B4F0B9C0B5F0BAC0B6F018
:102E2800BBC0B7F01C0E8F6FFD0E906F3FEC44F0E7
:102E38000DEF18F0010EEC6F6A0E00018F6FFD0E9A
:102E4800906F3FEC44F00DEF18F0B8C0B4F0B9C083
:102E5800B5F0BAC0B6F0BBC0B7F0010EE56F070E0B
:102E6800E56539EF17F03BEF17F03DEF17F00DEF81
:102E780018F0040EE56143EF17F045EF17F056EF31
:102E880017F0B30E01013A6F010E3B6F3B0EE525BB
:102E9800D96EDA6A030EDA22DF503C6F84EC45F013
:102EA800BDEF17F0040EE519D8A45DEF17F05FEF3A
:102EB80017F077EF17F0B30E0001916F010E926FC4
:102EC800B5EC32F0000191510101EB6FB30E000136
:102ED8008F6F010E906F8C0E916FFF0E926FFEEC4C
:102EE80047F045EF17F0050EE519D8A47EEF17F067
:102EF80080EF17F082EF17F045EF17F0060EE5198F
:102F0800D8A489EF17F08BEF17F0BDEF17F0B30EC9
:102F18003A6F010E3B6F3B0EE525D96EDA6A030E58
:102F2800DA22DF503C6F84EC45F0B30E0001916F5C
:102F3800010E926FB5EC32F0000191510101EA6F78
:102F4800B30E966F010E976FAA0E986FFC0E996FCD
:102F5800EBC19AF19B6BEAC19CF19D6BE3EC48F0E5
:102F6800B30E00018F6F010E906F3FEC44F0BDEF80
:102F780017F00101E52B33EF17F00DEF18F0010101
:102F8800DB51B16FB26BB251000AD8B4CEEF17F073
:102F9800C1EF17F0B151310AD8B4F6EF15F0030AB2
:102FA800D8B402EF16F0010AD8B40EEF16F0720A80
:102FB800D8B488EF16F0020AD8B496EF15F0070ACD
:102FC800D8B41AEF16F00C0AD8B436EF15F0020A86
:102FD800D8B429EF17F0060AD8B40DEF15F0010A96
:102FE800D8B403EF17F0020AD8B426EF16F01D0A7A
:102FF800D8B440EF14F0010AD8B4EDEF16F0060A81
:10300800D8B41EEF17F00D0AD8B4F8EF16F0C1EFD8
:1030180017F0120071C1D9FF72C1DAFFDECFF6FFD7
:10302800DDCFF7FF0800F550250AD8A41EEF18F0E9
:1030380020EF18F042EF1BF071C1D9FF72C1DAFF1F
:10304800DE2A000EDD22000E0001CB6F000ECA6FD3
:10305800CAC0F9F1CC69CD6971C1D9FF72C1DAFF73
:10306800DECFF6FFDDCFF7FF0800F5502E0AD8A413
:1030780040EF18F042EF18F0B0EF18F0000ECD6FE7
:10308800000ECC6F71C1D9FF72C1DAFFDE2A000EC3
:10309800DD2271C1D9FF72C1DAFFDECFF6FFDDCFC5
:1030A800F7FF0800F5502A0AD8A45DEF18F05FEF83
:1030B80018F07CEF18F071C1D9FF72C1DAFFDE2A6F
:1030C800000EDD2273C1D9FF74C1DAFFDFCF75F1BD
:1030D800020EDE26DFCF76F1000EDD2275C1D9FFA4
:1030E80076C1DAFFDECFCCF0DDCFCDF0B0EF18F04F
:1030F80071C1D9FF72C1DAFFDECF91F0DDCF92F056
:10310800B5EC32F091C0CCF092C0CDF093EF18F04E
:1031180071C1D9FF72C1DAFFDE2A000EDD2271C14A
:10312800D9FF72C1DAFFDECFF6FFDDCFF7FF080067
:10313800F5CF75F1D00E01017525766F776BFF0E0F
:103148007723775109E10A0E765DD8A0AEEF18F023
:10315800B0EF18F08CEF18F071C1D9FF72C1DAFF27
:10316800DECF8CF1DDCF8DF18CC1F6FF8DC1F7FF7D
:103178000800F5CF8BF1CDEF18F08C4B8D2BEBEFD2
:1031880018F0690E8B6FEBEF18F0000E8B6FEBEFFA
:1031980018F001018B51756F766B7651000AD8B41F
:1031A800D8EF18F0C9EF18F07551640AD8B4C5EF14
:1031B80018F00D0AD8B4C5EF18F0050AD8B4C1EF55
:1031C80018F0140AD8B4C5EF18F0C9EF18F08CC17C
:1031D800F6FF8DC1F7FF0800F550640AD8B4F7EF81
:1031E80018F0F9EF18F063EF19F08CC1F6FF8DC1F4
:1031F800F7FF0800F550690AD8A405EF19F007EFA2
:1032080019F09EEF19F063EF19F073C1D9FF74C17B
:10321800DAFFDFCF75F1020EDE26DFCF76F1000E82
:10322800DD2275C1D9FF76C1DAFFDECF83F1DDCFAC
:1032380084F1000E84BFFF0E856F866F876F886FDD
:10324800896F8A6F78EF19F073C1D9FF74C1DAFFFB
:10325800DFCF75F1040EDE26DFCF76F1000EDD221A
:1032680075C1D9FF76C1DAFFDECF77F1DECF78F10D
:10327800DECF79F1DECF7AF177C17BF178C17CF1CD
:1032880079C17DF17AC17EF17F6B7EBF7F697FC195
:1032980080F17FC181F17FC182F17BC183F17CC163
:1032A80084F17DC185F17EC186F17FC187F180C13E
:1032B80088F181C189F182C18AF178EF19F08B51C7
:1032C800756F766B7651000AD8B46DEF19F078EF08
:1032D80019F07551690AD8B409EF19F0050AD8B47C
:1032E80028EF19F078EF19F0010E8C25756F000E94
:1032F8008D21766F71C1D9FF72C1DAFF75C1DEFF0A
:1033080076C1DDFF6FC100F170C101F183C102F127
:1033180084C103F185C104F186C105F187C106F1B5
:1033280088C107F189C108F18AC109F108EC2CF0BC
:1033380057EF1BF08CC1F6FF8DC1F7FF0800F55061
:10334800780AD8A4AAEF19F0ACEF19F047EF1AF0F1
:10335800F4EF19F073C1D9FF74C1DAFFDFCF75F14B
:10336800020EDE26DFCF76F1000EDD2275C1D9FF11
:1033780076C1DAFFDECF77F1DDCF78F177C183F15F
:1033880078C184F1856B866B876B886B896B8A6BD8
:1033980009EF1AF073C1D9FF74C1DAFFDFCF75F1F5
:1033A800040EDE26DFCF76F1000EDD2275C1D9FFCF
:1033B80076C1DAFFDECF77F1DECF78F1DECF79F1B3
:1033C800DECF7AF17751836F7851846F7951856FA9
:1033D8007A51866F876B886B896B8A6B09EF1AF055
:1033E8008B51756F766B7651000AD8B4FEEF19F0E1
:1033F80009EF1AF07551690AD8B4AEEF19F0050A49
:10340800D8B4CEEF19F009EF1AF0010E8C25756FBC
:10341800000E8D21766F71C1D9FF72C1DAFF75C1B7
:10342800DEFF76C1DDFF31EF1AF06FC100F170C128
:1034380001F183C102F184C103F185C104F186C1A0
:1034480005F187C106F188C107F189C108F18AC170
:1034580009F14FEC35F057EF1BF08CC1F6FF8DC129
:10346800F7FF0800F550756F766B7651000AD8B4EF
:1034780040EF1AF047EF1AF07551780AD8B419EFEF
:103488001AF047EF1AF071C1D9FF72C1DAFFDECF27
:103498008CF1DDCF8DF18CC1F6FF8DC1F7FF0800EF
:1034A800F5CF8BF164EF1AF08C4B8D2B7DEF1AF072
:1034B8006C0E8B6F7DEF1AF0000E8B6F7DEF1AF09C
:1034C8008B51756F766B7651000AD8B46EEF1AF08F
:1034D80060EF1AF075514C0AD8B458EF1AF02A0A5E
:1034E800D8B45CEF1AF00A0AD8B458EF1AF060EFB3
:1034F8001AF08CC1F6FF8DC1F7FF0800F550660A77
:10350800D8A489EF1AF08BEF1AF013EF1BF0C1EF74
:103518001AF073C1D9FF74C1DAFFDFCF75F1040E59
:10352800DE26DFCF76F1000EDD2275C1D9FF76C128
:10353800DAFFDECF83F1DECF84F1DECF85F1DECF97
:1035480086F1D6EF1AF073C1D9FF74C1DAFFDFCF65
:1035580075F1040EDE26DFCF76F1000EDD2275C18F
:10356800D9FF76C1DAFFDECF83F1DECF84F1DECF7B
:1035780085F1DECF86F1D6EF1AF08B51756F766B39
:103588007651000AD8B4CBEF1AF0D6EF1AF075517D
:103598004C0AD8B4A7EF1AF0200AD8B48DEF1AF065
:1035A800D6EF1AF0010E8C25756F000E8D21766FFF
:1035B80071C1D9FF72C1DAFF75C1DEFF76C1DDFFC7
:1035C800FDEF1AF06FC13AF170C13BF183C13CF1D4
:1035D80084C13DF185C13EF186C13FF18CC1F6FF42
:1035E8008DC1F7FF0800F5CF40F1CEEC0EF057EF94
:1035F8001BF08CC1F6FF8DC1F7FF0800F550756F01
:10360800766B7651000AD8B40CEF1BF013EF1BF061
:103618007551660AD8B4E6EF1AF013EF1BF071C1C2
:10362800D9FF72C1DAFFDECFF6FFDDCFF7FF080062
:10363800F550250AD8A423EF1BF025EF1BF039EF2E
:103648001BF071C1D9FF72C1DAFFDE2A000EDD223C
:10365800000E00018C6F250E8B6F6FC18DF070C14D
:103668008EF06AEC41F057EF1BF071C1D9FF72C1BF
:10367800DAFFDE2A000EDD2257EF1BF071C1D9FFF9
:1036880072C1DAFFDECFF6FFDDCFF7FF0800F55095
:1036980000018B6F8C6B6FC18DF070C18EF06AEC7E
:1036A80041F039EF1BF01200000E0101046F000E0B
:1036B8000B6F000E0C6F000E0D6F000E0E6F98C092
:1036C8000FF199C010F100019DBF76EF1BF09D51DD
:1036D80007E1250E9C5DD8B074EF1BF076EF1BF068
:1036E8007FEF1BF09C059D11D8A47DEF1BF07FEFA9
:1036F8001BF085EF1BF0000EC96F160EC86FA5EF03
:103708001DF001010F511011D8B48DEF1BF08FEF90
:103718001BF0A5EF1DF00FC1D9FF10C1DAFFDF5074
:10372800D8A499EF1BF09BEF1BF09DEF1BF0A5EFC2
:103738001DF00FC1D9FF10C1DAFFDF50116FAEEFD6
:103748001BF001010F4B102B0FC1D9FF10C1DAFF7D
:10375800DF50116F200E1119D8B4B5EF1BF0B7EF79
:103768001BF0A5EF1BF0F70E112500019F6FA06B52
:10377800FF0EA023A05109E1050E9F5DD8A0C7EF59
:103788001BF0C9EF1BF0A5EF1BF0000E0101096F3C
:10379800000E0A6F2D0E1119D8A4D5EF1BF0D7EF24
:1037A8001BF0E3EF1BF0010E096F0F4B102B0FC13D
:1037B800D9FF10C1DAFFDF50116FEEEF1BF02B0EAF
:1037C8001119D8A4EAEF1BF0ECEF1BF0EEEF1BF099
:1037D800D9EF1BF0300E1119D8A4F5EF1BF0F7EF55
:1037E8001BF085EF1CF00F4B102B0FC1D9FF10C138
:1037F800DAFFDF50116F00019C519D11D8B407EF1B
:103808001CF009EF1CF013EF1CF0100E9C199D1111
:10381800D8A411EF1CF013EF1CF074EF1CF0780E15
:1038280001011119D8B41BEF1CF01DEF1CF026EF95
:103838001CF0580E1119D8A424EF1CF026EF1CF028
:1038480074EF1CF0000E00019D6F100E9C6F0101BB
:103858000F4B102B0FC1D9FF10C1DAFFDF50116FCA
:10386800115100019F6FA06B200E9F13000EA01333
:103878009F0E9F25A16FFF0EA021A26FA25107E105
:103888001A0EA15DD8B04BEF1CF04DEF1CF05DEFA8
:103898001CF011C18FF0906B75EC4AF0C90E000155
:1038A8008F27100E8F615BEF1CF05DEF1CF06CEF43
:1038B8001CF011C191F0926B9CEC47F00001915102
:1038C8009211D8A46AEF1CF06CEF1CF085EF1CF085
:1038D800010E0101046F0F07D8A01007A5EF1DF016
:1038E800010E0101046F00019C519D11D8A47FEFC6
:1038F8001CF081EF1CF085EF1CF0000E9D6F080E88
:103908009C6F00019C519D11D8A48DEF1CF08FEF86
:103918001CF093EF1CF0000E9D6F0A0E9C6F9E51D9
:10392800D8B499EF1CF09BEF1CF0B8EF1CF0010124
:103938000951D8A4A2EF1CF0A4EF1CF0AEEF1CF0C4
:10394800FF0E056FFF0E066FFF0E076F7F0E086FE5
:10395800BDEF1CF0000E056F000E066F000E076F1E
:10396800800E086FBDEF1CF0010105690669076943
:1039780008690BC100F10CC101F10DC102F10EC1C2
:1039880003F1115100019F6FA06B200E9F13000ED1
:10399800A0139F0E9F25A16FFF0EA021A26FA25119
:1039A80007E11A0EA15DD8B0DCEF1CF0DEEF1CF0C9
:1039B800EAEF1CF011C18FF0906B75EC4AF0000132
:1039C8008F51C90F0101116F00EF1DF0D00E0101D9
:1039D800112500019F6FA06BFF0EA023A05107E1E6
:1039E8000A0E9F5DD8B0FBEF1CF0FDEF1CF08CEFCA
:1039F8001DF0300E0101115F115100019F6FA06B86
:103A08009C519F5DA051800AA16F9D51800AA159C8
:103A1800D8A011EF1DF013EF1DF015EF1DF08CEF7E
:103A28001DF001010A51D8A41CEF1DF01EEF1DF076
:103A38007FEF1DF09CC08BF09DC08CF00001000E44
:103A48008CBFFF0E8D6F8E6F0BC18FF00CC190F085
:103A58000DC191F00EC192F065EC46F001011151D3
:103A680000018B2501010B6F000E00018C21010163
:103A78000C6F000E00018D2101010D6F000E000179
:103A88008E2101010E6F00510B5D01510C5902513D
:103A98000D5903510E59D8A054EF1DF056EF1DF0E3
:103AA8006FEF1DF000019E51D8B45DEF1DF05FEF80
:103AB8001DF07FEF1DF001010B51055D0C510659FA
:103AC8000D5107590E510859D8B06DEF1DF06FEF21
:103AD8001DF07FEF1DF005C10BF106C10CF107C108
:103AE8000DF108C10EF1000E0001C96F220EC86F5A
:103AF800010E01010A6F01010F4B102B0FC1D9FFF5
:103B080010C1DAFFDF50116F010E046FBDEF1CF01A
:103B180001010A51D8A493EF1DF095EF1DF0A5EF10
:103B28001DF00951D8B49BEF1DF09DEF1DF0A5EFD6
:103B38001DF00E1F0D1F0C1F0B6D000E0C230D2307
:103B48000E2300019A519B11D8B4ADEF1DF0AFEFD1
:103B58001DF0C4EF1DF001010451D8A4B6EF1DF00B
:103B6800B8EF1DF0BCEF1DF098C00FF199C010F12F
:103B78009AC0D9FF9BC0DAFF0FC1DEFF10C1DDFF7D
:103B88000BC198F00CC199F00DC19AF00EC19BF0D1
:103B9800120025EEC8F0270EDE6AE806FDE2670E81
:103BA800D36E030E0101E76F080EE66F770EE82E5D
:103BB800FED7E62FFCD7E72FFAD78DEC48F070EC4C
:103BC8004CF065EC4CF083EC4CF03DEC4CF0CDEC5B
:103BD80047F0FBEC4BF0000E20EC4BF0010E20EC14
:103BE8004BF0010E0101EC6F0101FD51D8B4FFEF5C
:103BF8001DF001EF1EF01CEF1EF0410E0101E66FF3
:103C0800EE0EE82EFED7E62FFCD700F0FDEC13F001
:103C1800000E0101FD6F3B0E00018F6F030E906FC8
:103C28008C0E916FFF0E926FFEEC47F042EF1EF084
:103C3800FC51D8B422EF1EF024EF1EF042EF1EF024
:103C48001A0E0101E66FF80EE82EFED7E62FFCD714
:103C580000F0280E0101AB6F040EAC6F51EC09F0B7
:103C6800000E0101FC6F280E00018F6F040E906F8B
:103C78008C0E916FFF0E926FFEEC47F00101EC0580
:103C8800D8A449EF1EF04BEF1EF054EF1EF0000EC3
:103C980020EC4BF0010E20EC4BF0899095EF1FF0D3
:103CA800EC51D8A45AEF1EF05CEF1EF095EF1FF010
:103CB8000001B451B85D0101E66F0001B551B95971
:103CC8000101E76F0001B651BA590101E86F00011F
:103CD800B751BB590101E96FE951E8110BE1E90E50
:103CE800E65D030EE759D8A07CEF1EF07EEF1EF0CC
:103CF80082EF1EF0010EEA6FEAC1EBF1C80EEB6528
:103D080088EF1EF08AEF1EF0A0EF1EF08980000EEB
:103D180000018B6F010E6AEC47F0000E00018B6FFB
:103D2800000E6AEC47F0560E00018F6FFF0E906F81
:103D38003FEC44F0DCEF1EF0EB51D8A4A6EF1EF0E8
:103D4800A8EF1EF0CEEF1EF0010EEA65AEEF1EF0F2
:103D5800B0EF1EF0B8EF1EF0C70EEA65B6EF1EF022
:103D6800B8EF1EF0DCEF1EF08980010E00018B6FAA
:103D7800000E6AEC47F0010E00018B6F010E6AEC31
:103D880047F0180E00018F6FFF0E906F3FEC44F064
:103D9800DCEF1EF08990000E20EC4BF0010E20ECB9
:103DA8004BF04C0E00018F6FFF0E906F3FEC44F00C
:103DB800C80E0101EA65E3EF1EF0E5EF1EF031EFF2
:103DC8001FF0C80EEB65EBEF1EF0EDEF1EF000EFF5
:103DD8001FF0000E20EC4BF09C0E0101E66FD70E91
:103DE800E82EFED7E62FFCD7000E00018B6F000EE1
:103DF8006AEC47F028EF1FF0EB51D8A406EF1FF04C
:103E080008EF1FF01BEF1FF0010E20EC4BF09C0E8B
:103E18000101E66FD70EE82EFED7E62FFCD7010E7C
:103E280000018B6F010E6AEC47F028EF1FF08980C4
:103E3800000E00018B6F010E6AEC47F0010E0001C5
:103E48008B6F000E6AEC47F0D00E00018F6FFE0EEC
:103E5800906F3FEC44F095EF1FF0EA51D8A437EF8C
:103E68001FF039EF1FF095EF1FF0010EEB653FEFE4
:103E78001FF041EF1FF049EF1FF0C70EEB6547EF4A
:103E88001FF049EF1FF095EF1FF0C80EEB654FEFDD
:103E98001FF051EF1FF064EF1FF0010E20EC4BF004
:103EA8009C0E0101E66FD70EE82EFED7E62FFCD751
:103EB800000E00018B6F010E6AEC47F08CEF1FF0CB
:103EC800EB51D8A46AEF1FF06CEF1FF07FEF1FF0E3
:103ED800000E20EC4BF09C0E0101E66FD70EE82E89
:103EE800FED7E62FFCD7010E00018B6F000E6AEC9F
:103EF80047F08CEF1FF08980010E00018B6F010ED7
:103F08006AEC47F0000E00018B6F000E6AEC47F078
:103F1800E90E00018F6FFE0E906F3FEC44F095EFB5
:103F28001FF00001BF51BE110BE1880EBC5D130EDE
:103F3800BD59D8A0A2EF1FF0A4EF1FF0F8EF1DF0B5
:103F4800000EBC6F000EBD6F000EBE6F000EBF6F7F
:103F580052EC2DF098EC4BF0D0EC41F022C1C0F0BF
:103F680023C1C1F024C1C2F025C1C3F0C0C03AF1D9
:103F7800C1C03BF1C2C03CF1C3C03DF1C9EC31F056
:103F88003AC1C4F03BC1C5F03CC1C6F03DC1C7F061
:103F9800CD0E01010D6FCC0E0E6F140E0F6F410E7A
:103FA800106FC0C011F1C1C012F1C2C013F1C3C07B
:103FB80014F163EC38F00101D8A0E5EF1FF0E7EF4A
:103FC8001FF0F5EF1FF0010E00018F6FFF0E906FCD
:103FD8003FEC44F0950E00018F6FFF0E906F50EC90
:103FE8003EF0E50E00018B6F030E8C6F9F0E8D6FF8
:103FF800030E8E6F000E906F060E8F6F83EC44F0E9
:10400800DB0E00018B6F030E8C6F770E8D6F030E26
:104018008E6F000E906F060E8F6F83EC44F00201D6
:10402800FA510DE1600EF75D4D0EF8592F0EF95952
:10403800D8A021EF20F023EF20F0F8EF1DF0000EBC
:10404800F76F000EF86F000EF96F000EFA6F01019E
:10405800FE2B2FEC46F0F8EF1DF02DEF01F00101DB
:104068002551800B2E6F25512525306F24AF3FEF4A
:1040780020F041EF20F042EF20F030813051D8B4E9
:1040880048EF20F04AEF20F05FEF20F03029D8A465
:1040980050EF20F052EF20F05AEF20F0000E226F80
:1040A800000E236F000E246F000E256F248F000E64
:1040B800256F67EF20F0000E226F000E236F000EB1
:1040C800246F000E256F2951800B2F6F2E512F1949
:1040D800D8B471EF20F073EF20F074EF20F02E8D3C
:1040E800295129252F6F28AF7CEF20F07EEF20F093
:1040F8007FEF20F02F812F51D8B485EF20F087EF84
:1041080020F09CEF20F02F29D8A48DEF20F08FEF1E
:1041180020F097EF20F0000E266F000E276F000E9C
:10412800286F000E296F288F000E296FA4EF20F04A
:10413800000E266F000E276F000E286F000E296FE5
:1041480030512F5DD8B0ABEF20F0ADEF20F0D4EFB9
:1041580020F02EADB2EF20F0B4EF20F0B6EF20F053
:10416800800E2E1B30C131F12FC130F131C12FF13A
:1041780022C131F126C122F131C126F123C131F129
:1041880027C123F131C127F124C131F128C124F11C
:1041980031C128F125C131F129C125F131C129F1F8
:1041A800000E316F30512FC12AF12B6B2A5F000EA0
:1041B8002B5B2BBFE9EF20F02B5109E11A0E2A5D8A
:1041C800D8A0E9EF20F0EBEF20F022EF21F0225108
:1041D800231124112511D8A4F4EF20F0F7EF20F0D3
:1041E800010EF8EF20F0000E316F000E226F000E66
:1041F800236F000E246F000E256F2FC130F12BEFB7
:1042080021F031A10AEF21F00CEF21F012EF21F09B
:10421800D89031310109316F14EF21F0D890313342
:1042280022A119EF21F01BEF21F01CEF21F0318FB3
:1042380025352533243323332233302B2F51305D5A
:10424800D8A029EF21F02BEF21F005EF21F02EBDAA
:1042580030EF21F032EF21F072EF21F03051D8A485
:1042680038EF21F03AEF21F044EF21F0000E226FF1
:10427800000E236F000E246F000E256F93EF22F0BF
:104288002651222727512323285124232951252326
:1042980025A151EF21F053EF21F0FFEF21F031A1DB
:1042A80058EF21F05AEF21F060EF21F0D89031312A
:1042B8000109316F62EF21F0D890313322A167EF05
:1042C80021F069EF21F06AEF21F0318F2535253390
:1042D800243323332233302BFFEF21F02651225D84
:1042E80027512359285124592551800A2A6F2951C9
:1042F800800A2A59D8B083EF21F085EF21F0B0EF7A
:1043080021F02251265D2A6F235127592B6F245102
:1043180028592C6F255129592D6FFF0E2A25226FF8
:10432800FF0E2B21236FFF0E2C21246FFF0E2D2152
:10433800256F800E2E1B316D3151D8A4A6EF21F0C8
:10434800A8EF21F0B8EF21F0010E2227000E232359
:1043580024232523B8EF21F02651225F2751235B20
:104368002851245B2951255B225123112411251141
:10437800D8A4C1EF21F0C3EF21F0F8EF21F03151BB
:10438800D8A4C9EF21F0CBEF21F0F8EF21F0000E0F
:10439800226F000E236F000E246F000E256F93EF1F
:1043A80022F0D890223723372437253731AFDFEF73
:1043B80021F0E1EF21F0E2EF21F0228131A1E7EFD6
:1043C80021F0E9EF21F0EDEF21F0D8803137EFEF60
:1043D80021F0D89031373051D8B4F5EF21F0F7EF0C
:1043E80021F0F8EF21F0300724AFFDEF21F0FFEFC7
:1043F80021F0D5EF21F0000E2F6F31AF06EF22F03C
:1044080008EF22F020EF22F031C12AF17F0E2A179F
:10441800D8B411EF22F013EF22F017EF22F0010EBB
:104428002F6F20EF22F022A11CEF22F01EEF22F0C6
:1044380020EF22F013EF22F02F51D8B426EF22F00C
:1044480028EF22F053EF22F0010E2227000E23233B
:104458002423252325A133EF22F035EF22F053EF53
:1044680022F022C12AF123C12BF124C12CF125C14C
:104478002DF12D352D332C332B332A332AC122F13C
:104488002BC123F12CC124F12DC125F13029D8B439
:1044980050EF22F052EF22F053EF22F0302B302968
:1044A800D8B459EF22F05BEF22F063EF22F03051DD
:1044B800D8A461EF22F063EF22F075EF22F0000E2E
:1044C800226F000E236F000E246F000E256F3051EF
:1044D800D8A471EF22F073EF22F075EF22F0000EEE
:1044E8002E6F30A17AEF22F07CEF22F07FEF22F0DE
:1044F800248F80EF22F0249FD8903031256F2EAF83
:1045080088EF22F08AEF22F08BEF22F0258F22C16C
:1045180022F123C123F124C124F125C125F1120080
:1045280000019C51800B0101006F00019C519C25EA
:104538000101066F00019BAFA4EF22F0A6EF22F065
:10454800A8EF22F00101068101010651D8B4AFEFAE
:1045580022F0B1EF22F0C6EF22F00629D8A4B7EF77
:1045680022F0B9EF22F0C2EF22F0000E0001996F9D
:10457800000E9A6F000E9B6F000E9C6F00019B8FC0
:10458800CFEF22F0000E0001996F000E9A6F000E17
:104598009B6F000E9C6FA051800B0101001B000156
:1045A800A051A0250101016F00019FAFDEEF22F0AD
:1045B800E0EF22F0E2EF22F0010101810101015157
:1045C800D8B4E9EF22F0EBEF22F000EF23F0012955
:1045D800D8A4F1EF22F0F3EF22F0FCEF22F0000E66
:1045E80000019D6F000E9E6F000E9F6F000EA06F62
:1045F80000019F8F09EF23F0000E00019D6F000E50
:104608009E6F000E9F6F000EA06F01010151D8B47C
:1046180010EF23F012EF23F01AEF23F00651D8A47D
:1046280018EF23F01AEF23F025EF23F0000E000116
:10463800996F000E9A6F000E9B6F000E9C6FF0EF43
:1046480024F000019F519903F3CF0BF1F4CF0CF143
:1046580001010B51026F036B046B056B0C51076F63
:10466800086B096B0A6B00019E519A03F3CF0BF19B
:10467800F4CF0CF101010B510227000E0323042390
:1046880005230C510727000E082309230A230001DC
:104698009D519B03F3CF0BF1F4CF0CF101010B51AA
:1046A8000227000E0323042305230C510727000EBD
:1046B800082309230A2304C105F103C104F102C137
:1046C80003F1026B00019D519A03F3CF0BF1F4CF74
:1046D8000CF101010B5102270C510323000E042396
:1046E800000E052300019E519903F3CF0BF1F4CF7F
:1046F8000CF101010B5102270C510323000E042376
:10470800000E052304C105F103C104F102C103F140
:10471800026B00019D519903F3CF0BF1F4CF0CF11B
:1047280001010B5102270C510323000E0423000E34
:10473800052300019F519A03F3CF0BF1F4CF0CF13D
:1047480001010B5107270C510823000E0923000E05
:104758000A2300019E519B03F3CF0BF1F4CF0CF118
:1047680001010B5107270C510823000E0923000EE5
:104778000A2300019F519B03F3CF0BF1F4CF0CF1F7
:1047880001010B510001A16F01010C510001A26F41
:10479800A36BA46BA3C0A4F0A2C0A3F0A1C0A2F015
:1047A800A16BA151010107270001A25101010823B2
:1047B8000001A351010109230001A45101010A23A9
:1047C80002C1A1F003C1A2F004C1A3F005C1A4F085
:1047D800190EF5EF23F00001D890A433A333A233C8
:1047E800A133E82EEFEF23F0A151010107270001C3
:1047F800A251010108230001A3510101092300016D
:10480800A45101010A2304C105F103C104F102C145
:1048180003F1026B015106C1A1F00001A26BA127AF
:10482800000EA223820EA12501010B6FFF0E0001CD
:10483800A22101010C6F36EF24F0D8900737083712
:1048480009370A3705AF2BEF24F02DEF24F02EEFB0
:1048580024F00781D89002370337043705370B0750
:10486800D8A00C0709AF3BEF24F03DEF24F021EF6F
:1048780024F0000E016F05AF44EF24F046EF24F05A
:1048880073EF24F0FF0E02150001A16FFF0E010166
:1048980003150001A26FFF0E010104150001A36FAB
:1048A8007F0E010105150001A46FA151A211A311EA
:1048B800A411D8B462EF24F064EF24F069EF24F077
:1048C800010E0101016F73EF24F0010107A16FEFE1
:1048D80024F071EF24F073EF24F064EF24F0015119
:1048E800D8B479EF24F07BEF24F0A1EF24F0010E87
:1048F8000727000E082309230A230AA186EF24F0BC
:1049080088EF24F0A1EF24F007C1A1F008C1A2F0BC
:1049180009C1A3F00AC1A4F00001A435A433A3334C
:10492800A233A133A1C007F1A2C008F1A3C009F1C5
:10493800A4C00AF101010B4B0C2B0CBFACEF24F007
:104948000C5108E10B29D8A0ACEF24F0AEEF24F00D
:10495800B8EF24F0000E076F000E086F800E096F85
:104968007F0E0A6FE6EF24F00CBFC5EF24F00C5160
:1049780006E10B05D8B0C3EF24F0C5EF24F0D1EF62
:1049880024F0000E076F000E086F000E096F000E6E
:104998000A6F000E006FE6EF24F00BC106F1FF0E60
:1049A8000717FF0E08177F0E0917000E0A1706A132
:1049B800E0EF24F0E2EF24F0E3EF24F0098FD89041
:1049C80006310A6F00510A1307C199F008C19AF01D
:1049D80009C19BF00AC19CF012000450800B0D6EB7
:1049E80004500424136E03AEFCEF24F0FEEF24F011
:1049F800FFEF24F013801350D8B405EF25F007EF2C
:104A080025F01AEF25F01328D8A40DEF25F00FEFA5
:104A180025F017EF25F0000E016E000E026E000E55
:104A2800036E000E046E038E22EF25F0000E016E59
:104A3800000E026E000E036E000E046E0850800B0E
:104A48000D1A08500824126E07AE2DEF25F02FEF2F
:104A580025F030EF25F012801250D8B436EF25F04B
:104A680038EF25F04BEF25F01228D8A43EEF25F0BB
:104A780040EF25F048EF25F0000E056E000E066E9B
:104A8800000E076E000E086E078E53EF25F0000E1D
:104A9800056E000E066E000E076E000E086E1250B0
:104AA800D8B459EF25F05BEF25F063EF25F01350EC
:104AB800D8A461EF25F063EF25F06DEF25F0000E27
:104AC800016E000E026E000E036E000E046E05EFFE
:104AD80027F007500102F3CF18F0F4CF19F018505F
:104AE8000E6E0F6A106A116A1950146E156A166AEA
:104AF800176A06500202F3CF18F0F4CF19F01850D5
:104B08000E26000E0F221022112219501426000E14
:104B180015221622172205500302F3CF18F0F4CFFE
:104B280019F018500E26000E0F22102211221950CB
:104B38001426000E15221622172210C011F00FC0DD
:104B480010F00EC00FF00E6A05500202F3CF18F0F5
:104B5800F4CF19F018500E2619500F22000E10220B
:104B6800000E112206500102F3CF18F0F4CF19F00D
:104B780018500E2619500F22000E1022000E112276
:104B880010C011F00FC010F00EC00FF00E6A0550E3
:104B98000102F3CF18F0F4CF19F018500E2619506F
:104BA8000F22000E1022000E112207500202F3CF2E
:104BB80018F0F4CF19F01850142619501522000EC9
:104BC8001622000E172206500302F3CF18F0F4CF76
:104BD80019F01850142619501522000E1622000E2E
:104BE800172207500302F3CF18F0F4CF19F018502A
:104BF800096E19500A6E0B6A0C6A0BC00CF00AC0D9
:104C08000BF009C00AF0096A095014260A50152247
:104C18000B5016220C5017220EC009F00FC00AF0D4
:104C280010C00BF011C00CF0190E20EF26F0D89030
:104C38000C320B320A320932E82E1BEF26F00950EB
:104C480014260A5015220B5016220C50172210C099
:104C580011F00FC010F00EC00FF00E6A125013C002
:104C680009F00A6A0926000E0A22820E0924186E23
:104C7800FF0E0A20196E56EF26F0D8901436153616
:104C88001636173611AE4BEF26F04DEF26F04EEFE5
:104C980026F01480D8900E360F36103611361806C6
:104CA800D8A0190616AE5BEF26F05DEF26F041EFAF
:104CB80026F0000E126E11AE64EF26F066EF26F0B5
:104CC8008AEF26F0FF0E0E14096EFF0E0F140A6EFF
:104CD800FF0E10140B6E7F0E11140C6E09500A1083
:104CE8000B100C10D8B47BEF26F07DEF26F081EF87
:104CF80026F0010E126E8AEF26F014A086EF26F039
:104D080088EF26F08AEF26F07DEF26F01250D8B40F
:104D180090EF26F092EF26F0B6EF26F0010E14265B
:104D2800000E15221622172217A09DEF26F09FEFDE
:104D380026F0B6EF26F014C009F015C00AF016C028
:104D48000BF017C00CF00C340C320B320A3209325B
:104D580009C014F00AC015F00BC016F00CC017F00B
:104D6800184A192A19BEC1EF26F0195008E1182867
:104D7800D8A0C1EF26F0C3EF26F0CDEF26F0000E45
:104D8800146E000E156E800E166E7F0E176EFBEFFA
:104D980026F019BEDAEF26F0195006E11804D8B04B
:104DA800D8EF26F0DAEF26F0E6EF26F0000E146EC4
:104DB800000E156E000E166E000E176E000E0D6EAC
:104DC800FBEF26F018C013F0FF0E1416FF0E151691
:104DD8007F0E1616000E171613A0F5EF26F0F7EF44
:104DE80026F0F8EF26F0168ED8901330176E0D5077
:104DF800171214C001F015C002F016C003F017C056
:104E080004F0120001011051800B196F1051102588
:104E1800206F0FAF12EF27F014EF27F015EF27F0F0
:104E280020812051D8B41BEF27F01DEF27F032EF77
:104E380027F02029D8A423EF27F025EF27F02DEF1E
:104E480027F0000E0D6F000E0E6F000E0F6F000E94
:104E5800106F0F8F000E106F3AEF27F0000E0D6FD6
:104E6800000E0E6F000E0F6F000E106F1451800BA6
:104E7800191B14511425216F13AF45EF27F047EF85
:104E880027F048EF27F021812151D8B44EEF27F0C1
:104E980050EF27F065EF27F02129D8A456EF27F027
:104EA80058EF27F060EF27F0000E116F000E126F19
:104EB800000E136F000E146F138F000E146F6DEF3A
:104EC80027F0000E116F000E126F000E136F000E08
:104ED800146F1151121113111411D8A476EF27F081
:104EE80078EF27F090EF27F0000E0D6F000E0E6F91
:104EF800000E0F6F000E106F800E0F137F0E101331
:104F0800195110130DC10DF10EC10EF10FC10FF1A2
:104F180010C110F1E2EF28F02051D8A496EF27F045
:104F280098EF27F0A2EF27F0000E0D6F000E0E6F1E
:104F3800000E0F6F000E106FE2EF28F0215120C114
:104F4800A5F00001A66BA55F000EA65B7F0EA52548
:104F580001011A6F000E0001A62101011B6F0DC18E
:104F680015F10EC116F10FC117F110C118F1000E9D
:104F78000D6F000E0E6F000E0F6F000E106F000EFB
:104F88001C6F000E1D6F000E1E6F000E1F6F000EAF
:104F9800216F07EF28F02151D8B4D5EF27F0D7EFCC
:104FA80027F0EEEF27F0D890153716371737183750
:104FB800D8900D370E370F3710371FAFE6EF27F0B1
:104FC800E8EF27F0E9EF27F00D81D8901C371D375F
:104FD8001E371F371151155D1251165913511759A4
:104FE80014511859D8A0FBEF27F0FDEF27F006EF72
:104FF80028F01F8D1151155F1251165B1351175B65
:105008001451185B212B190E21650DEF28F00FEFB5
:1050180028F0CFEF27F01551161117111811D8B431
:1050280018EF28F01AEF28F032EF28F01C8132EF41
:1050380028F0D8900D370E370F3710371FAF27EFEE
:1050480028F029EF28F02AEF28F00D81D8901C3796
:105058001D371E371F371A07D8A01B070FAF37EFAA
:1050680028F039EF28F01DEF28F0000E216F1FAF50
:1050780040EF28F042EF28F06FEF28F0FF0E1C15E4
:105088000001A56FFF0E01011D150001A66FFF0E9F
:1050980001011E150001A76F7F0E01011F150001F8
:1050A800A86FA551A611A711A811D8B45EEF28F0D2
:1050B80060EF28F065EF28F0010E0101216F6FEF16
:1050C80028F001010DA16BEF28F06DEF28F06FEFCC
:1050D80028F060EF28F02151D8B475EF28F077EF69
:1050E80028F09DEF28F0010E0D27000E0E230F2348
:1050F800102310A182EF28F084EF28F09DEF28F00C
:105108000DC1A5F00EC1A6F00FC1A7F010C1A8F0FF
:105118000001A835A833A733A633A533A5C00DF1E0
:10512800A6C00EF1A7C00FF1A8C010F101011A4BDB
:105138001B2B1BBFA8EF28F01B5108E11A29D8A088
:10514800A8EF28F0AAEF28F0B5EF28F0000E1B6FA3
:105158001A69000E0D6F000E0E6F000E0F6F000E15
:10516800106F1BBFC2EF28F01B5106E11A05D8B01B
:10517800C0EF28F0C2EF28F0D0EF28F0000E1B6F28
:10518800000E1A6F000E0D6F000E0E6F000E0F6FDF
:10519800000E106F000E196F1AC120F120A1D7EF71
:1051A80028F0D9EF28F0DCEF28F00F8FDDEF28F09A
:1051B8000F9FD8902031106F84EF27F01200045011
:1051C800800B116E04500424186E03AEEEEF28F025
:1051D800F0EF28F0F1EF28F018801850D8B4F7EF66
:1051E80028F0F9EF28F00EEF29F01828D8A4FFEFDF
:1051F80028F001EF29F009EF29F0000E016E000EEA
:10520800026E000E036E000E046E038E000E046E16
:1052180016EF29F0000E016E000E026E000E036EEE
:10522800000E046E0850800B111A08500824196EDD
:1052380007AE21EF29F023EF29F024EF29F0198098
:105248001950D8B42AEF29F02CEF29F041EF29F0B2
:105258001928D8A432EF29F034EF29F03CEF29F0CF
:10526800000E056E000E066E000E076E000E086E2C
:10527800078E000E086E49EF29F0000E056E000E2D
:10528800066E000E076E000E086E05500610071019
:105298000810D8A452EF29F054EF29F06CEF29F048
:1052A800000E016E000E026E000E036E000E046EFC
:1052B800800E03127F0E04121150041201C001F077
:1052C80002C002F003C003F004C004F0AFEF2AF0FC
:1052D8001850D8A472EF29F074EF29F07EEF29F066
:1052E800000E016E000E026E000E036E000E046EBC
:1052F800AFEF2AF0195018C009F00A6A095E000ECB
:105308000A5A7F0E0924126E000E0A20136E01C07D
:105318000DF002C00EF003C00FF004C010F0000E34
:10532800016E000E026E000E036E000E046E000E7B
:10533800146E000E156E000E166E000E176E000E1F
:10534800196EDFEF29F01950D8B4ADEF29F0AFEF9F
:1053580029F0C6EF29F0D8900D360E360F361036E4
:10536800D890013602360336043617AEBEEF29F060
:10537800C0EF29F0C1EF29F00180D8901436153616
:105388001636173605500D5C06500E5807500F5844
:1053980008501058D8A0D3EF29F0D5EF29F0DEEF48
:1053A80029F0178C05500D5E06500E5A07500F5AFB
:1053B8000850105A192A190E1964E5EF29F0E7EF79
:1053C80029F0A7EF29F00D500E100F101010D8B4C7
:1053D800F0EF29F0F2EF29F00AEF2AF014800AEF33
:1053E8002AF0D890013602360336043617AEFFEF9E
:1053F80029F001EF2AF002EF2AF00180D890143644
:105408001536163617361206D8A0130603AE0FEF58
:105418002AF011EF2AF0F5EF29F0000E196E17AEF9
:1054280018EF2AF01AEF2AF03EEF2AF0FF0E1414B4
:10543800096EFF0E15140A6EFF0E16140B6E7F0E02
:1054480017140C6E09500A100B100C10D8B42FEF5B
:105458002AF031EF2AF035EF2AF0010E196E3EEFEF
:105468002AF001A03AEF2AF03CEF2AF03EEF2AF0AA
:1054780031EF2AF01950D8B444EF2AF046EF2AF059
:105488006AEF2AF0010E0126000E022203220422EE
:1054980004A051EF2AF053EF2AF06AEF2AF001C076
:1054A80009F002C00AF003C00BF004C00CF00C3481
:1054B8000C320B320A32093209C001F00AC002F07C
:1054C8000BC003F00CC004F0124A132A13BE75EF88
:1054D8002AF0135008E11228D8A075EF2AF077EFC8
:1054E8002AF082EF2AF0000E136E1268000E016E89
:1054F800000E026E000E036E000E046E13BE8FEFD8
:105508002AF0135006E11204D8B08DEF2AF08FEF7D
:105518002AF09DEF2AF0000E136E000E126E000E98
:10552800016E000E026E000E036E000E046E000E79
:10553800116E12C018F018A0A4EF2AF0A6EF2AF0F6
:10554800A9EF2AF0038EAAEF2AF0039ED89018300C
:10555800046E60EF29F01200000E0101746F000E56
:10556800756F21EE4CF0130EDE6AE806FDE221EEBF
:1055780060F0130EDE6AE806FDE2280E7F6F040E67
:10558800806FD7EF2AF07F4B802B7FC1D9FF80C176
:10559800DAFFDF50D8A4D3EF2AF0D5EF2AF0D7EFFF
:1055A8002AF00EEF2BF07FC1D9FF80C1DAFFDF5060
:1055B800496FD00E49254A6F4B6BFF0E4B234B5159
:1055C80007E10A0E4A5DD8B0ECEF2AF0EEEF2AF0B8
:1055D800C7EF2AF020EE01F07F51D9268051DA2258
:1055E800200EDE18D8B4FBEF2AF0FDEF2AF0C7EF43
:1055F8002AF00EEF2BF04C0E3A6F010E3B6F7FC175
:10560800D9FF80C1DAFFDF503C6F84EC45F001011F
:105618007F4B802B7FC1D9FF80C1DAFFDF50496FF4
:10562800D00E49254A6F4B6BFF0E4B234B5109E1B6
:105638000A0E4A5DD8A023EF2BF025EF2BF0FFEFE1
:105648002AF07F4B802B000E7E6F3BEF2BF04C0E29
:105658003A6F010E3B6F7FC1D9FF80C1DAFFDF507F
:105668003C6F84EC45F001017E2B7F4B802B7FC182
:10567800D9FF80C1DAFFDF50496FD00E49254A6F44
:105688004B6BFF0E4B234B5107E10A0E4A5DD8B016
:1056980050EF2BF052EF2BF06CEF2BF0040E7E65E1
:1056A80058EF2BF05AEF2BF02BEF2BF06CEF2BF081
:1056B8007F4B802B7FC1D9FF80C1DAFFDF50D8A490
:1056C80068EF2BF06AEF2BF06CEF2BF094EF2BF0D8
:1056D8007FC1D9FF80C1DAFFDF50496FD00E49255D
:1056E8004A6F4B6BFF0E4B234B5107E10A0E4A5D85
:1056F800D8B081EF2BF083EF2BF05CEF2BF094EF19
:105708002BF0600E3A6F010E3B6F7FC1D9FF80C14D
:10571800DAFFDF503C6F84EC45F001017F4B802BB2
:105728007FC1D9FF80C1DAFFDF50496FD00E49250C
:105738004A6F4B6BFF0E4B234B5109E10A0E4A5D32
:10574800D8A0A9EF2BF0ABEF2BF085EF2BF07F4B18
:10575800802B000E7E6FC1EF2BF0600E3A6F010EAA
:105768003B6F7FC1D9FF80C1DAFFDF503C6F84EC0B
:1057780045F001017E2B7F4B802B7FC1D9FF80C173
:10578800DAFFDF50496FD00E49254A6F4B6BFF0E89
:105798004B234B5107E10A0E4A5DD8B0D6EF2BF0E8
:1057A800D8EF2BF0E0EF2BF0040E7E65DEEF2BF048
:1057B800E0EF2BF0B1EF2BF04C0E0001976F010ECC
:1057C800986F20EC36F097C076F198C077F199C0C1
:1057D80078F19AC079F1600E0001976F010E986F09
:1057E80020EC36F097C07AF198C07BF199C07CF133
:1057F8009AC07DF121EE76F001EE41F0070EDBCF85
:10580800EBFFE806FCE2120002C118F103C119F12E
:1058180004C11AF105C11BF106C11CF107C11DF134
:1058280008C11EF109C11FF101011FBF1EEF2CF0B5
:1058380021EF2CF0010E22EF2CF0000E206F2051EA
:10584800D8B429EF2CF02BEF2CF03BEF2CF01F1FD6
:105858001E1F1D1F1C1F1B1F1A1F191F186D000E4E
:1058680019231A231B231C231D231E231F23000176
:10587800CDBF49EF2CF0CD5106E1CC05D8B047EFAC
:105888002CF049EF2CF050EF2CF0000E0101156FB1
:10589800010E146F54EF2CF0CCC014F1CDC015F1EB
:1058A800CAC016F1CBC017F101012051D8B45FEF7F
:1058B8002CF061EF2CF078EF2CF01607D8A0170722
:1058C8002051D8A46AEF2CF06CEF2CF072EF2CF07A
:1058D800000E136F2B0E126F76EF2CF0000E136F65
:1058E8002D0E126F12C120F1000E226F4F0E216F84
:1058F800000E0401DB6F01EF2DF02107D8A022076D
:105908008C0E2125D96E040E2221DA6E18C18BF077
:1059180019C18CF01AC18DF01BC18EF01CC18FF01B
:105928001DC190F01EC191F01FC192F00A0E000136
:10593800936F000E946F000E956F000E966F000E19
:10594800976F000E986F000E996F000E9A6FB0EC6B
:1059580037F08BC00AF18CC00BF18DC00CF18EC0F2
:105968000DF18FC00EF190C00FF191C010F192C0EF
:1059780011F10AC19DF00BC19EF015EC4AF000012F
:105988009D51300FDF6E01011407D8A015071607C7
:10599800D8A0170718C18BF019C18CF01AC18DF067
:1059A8001BC18EF01CC18FF01DC190F01EC191F07B
:1059B8001FC192F00A0E0001936F000E946F000E43
:1059C800956F000E966F000E976F000E986F000E81
:1059D800996F000E9A6FEBEC36F08BC018F18CC003
:1059E80019F18DC01AF18EC01BF18FC01CF190C047
:1059F8001DF191C01EF192C01FF1010122BF0DEFF0
:105A08002DF0225108E12105D8A00DEF2DF00FEF60
:105A18002DF02BEF2DF0185119111A111B111C1113
:105A28001D111E111F11D8A41CEF2DF01EEF2DF013
:105A380081EF2CF015BF2BEF2DF0155106E1140561
:105A4800D8B029EF2DF02BEF2DF081EF2CF020515D
:105A5800D8B431EF2DF033EF2DF03EEF2DF02107C4
:105A6800D8A022078C0E2125D96E040E2221DA6EC9
:105A780020C1DFFF00C19BF001C19CF08C0E2125E5
:105A880000019D6F040E0101222100019E6F16C1C5
:105A98009FF017C1A0F009EC45F0120021EE3DF08F
:105AA800270EDE6AE806FDE2F29E92928992030EC4
:105AB80001013A6F970EE82EFED73A2FFCD700D097
:105AC80089821E0EE82EFED7928280B26EEF2DF0EC
:105AD80070EF2DF0AEEF2DF080A275EF2DF077EF7F
