:0400000099EF00F084
:100008004B82E9CF12F0EACF13F0E1CF14F0E2CF40
:1000180015F0D9CF16F0DACF17F0F6CF18F0F7CFE2
:1000280019F0F8CF1AF0F5CF1BF021EE00F010EE22
:100038001CF0270EDBCFE3FFE806FCE29EAA27EFC1
:1000480000F029EF00F03BEF00F09DAA2EEF00F042
:1000580030EF00F03BEF00F0E1EC0DF0446E620E83
:100068000B6E000E0C6E44C00DF0A2EC0CF0F2AA60
:1000780040EF00F042EF00F050EF00F0F2A447EF3D
:1000880000F049EF00F050EF00F0F294464A472A9A
:10009800F80ED76E2F0ED66EF0A055EF00F057EF82
:1000A80000F083EF00F04A50D8A45DEF00F05FEF56
:1000B80000F083EF00F0F090F9EC0DF0456E0A0EB9
:1000C8004518D8A46AEF00F06CEF00F07BEF00F061
:1000D800010E0001616F8A0E016E000E026E1C0E89
:1000E800036E000E046E0AEC0DF083EF00F01C0E98
:1000F8000B6E000E0C6E45C00DF0A2EC0CF01BC090
:10010800F5FF1AC0F8FF19C0F7FF18C0F6FF17C0AF
:10011800DAFF16C0D9FF15C0E2FF14C0E1FF13C013
:0E012800EAFF12C0E9FF4B92110039EF0DF013
:10100000005245430053545000524553004E415640
:0B10100000524100480052004D00005B
:10101C00EBC0DAF0ECC0DBF05BEC0DF00001DA5168
:10102C00F46F000EF56FEBC0DAF0ECC0DBF0160ECF
:10103C00DC6F100EDD6F30EC0CF00001DA51DB11BF
:10104C00D8A42BEF08F02DEF08F039EF08F0EDC025
:10105C00DAF0EEC0DBF0EBC0DCF0ECC0DDF0DAEC8B
:10106C000CF04FEF0AF0EBC0DAF0ECC0DBF0110E35
:10107C00DC6F100EDD6F30EC0CF00001DA51DB117F
:10108C00D8A44BEF08F04DEF08F059EF08F0EDC085
:10109C00DAF0EEC0DBF0EBC0DCF0ECC0DDF0DAEC4B
:1010AC000CF04FEF0AF0EBC0DAF0ECC0DBF0140EF2
:1010BC00DC6F100EDD6F30EC0CF00001DA51DB113F
:1010CC00D8A46BEF08F06DEF08F079EF08F0EDC0E5
:1010DC00DAF0EEC0DBF0EBC0DCF0ECC0DDF0DAEC0B
:1010EC000CF04FEF0AF0EBC0DAF0ECC0DBF0050EC1
:1010FC00DC6F100EDD6F30EC0CF00001DA51DB11FF
:10110C00D8A48BEF08F08DEF08F099EF08F0EDC044
:10111C00DAF0EEC0DBF0EBC0DCF0ECC0DDF0DAECCA
:10112C000CF04FEF0AF0EBC0DAF0ECC0DBF0090E7C
:10113C00DC6F100EDD6F30EC0CF00001DA51DB11BE
:10114C00D8A4ABEF08F0ADEF08F0B9EF08F0EDC0A4
:10115C00DAF0EEC0DBF0EBC0DCF0ECC0DDF0DAEC8A
:10116C000CF04FEF0AF0EBC0DAF0ECC0DBF0010E44
:10117C00DC6F100EDD6F30EC0CF00001DA51DB117E
:10118C00D8A4CBEF08F0CDEF08F0D9EF08F0EDC004
:10119C00DAF0EEC0DBF0EBC0DCF0ECC0DDF0DAEC4A
:1011AC000CF04FEF0AF0EBC0D9FFECC0DAFF410EA8
:1011BC00DE18D8B4E4EF08F0E6EF08F0F3EF08F02F
:1011CC00EBC0D9FFECC0DAFF4D0EDE18D8A4F1EF5E
:1011DC0008F0F3EF08F008EF09F0EBC0D9FFECC012
:1011EC00DAFFEDC0E1FFEEC0E2FFDFCFE7FF000169
:1011FC0020EE01F0ED51D926EE51DA22000EDF6E11
:10120C004FEF0AF0EBC0D9FFECC0DAFF4E0EDE1840
:10121C00D8A413EF09F015EF09F00DEF0AF020EE4A
:10122C0001F0EB51D926EC51DA22410EDE18D8A48C
:10123C0022EF09F024EF09F00DEF0AF020EE02F096
:10124C00EB51D926EC51DA22560EDE18D8A431EF28
:10125C0009F033EF09F00DEF0AF0D00EDA6F000E43
:10126C00DB6F130EDC6F100EDD6FDAEC0CF0C60EBC
:10127C000001DA6F000EDB6F130EDC6F100EDD6FEA
:10128C00DAEC0CF0EBC0D9FFECC0DAFFEDC0E1FFFB
:10129C00EEC0E2FFDFCFE7FF000120EE01F0EB51E3
:1012AC00D926EC51DA2210EE01F0ED51E126EE5187
:1012BC00E222DFCFE7FF20EE02F0EB51D926EC5112
:1012CC00DA2210EE02F0ED51E126EE51E222DFCFF0
:1012DC00E7FF20EE03F0ED51D926EE51DA22000E95
:1012EC00DF6E000EF66F02EF0AF0F651EB25D96EA9
:1012FC00000EEC21DA6EDF50EF6FD00EEF25F06FA1
:10130C00F16BFF0EF123F15109E10A0EF05DD8A04B
:10131C0092EF09F094EF09F0A3EF09F0F651EB25E9
:10132C00D96E000EEC21DA6E2E0EDE18D8A4A1EFC9
:10133C0009F0A3EF09F000EF0AF0F551D8A4A9EFDA
:10134C0009F0ABEF09F0F2EF09F0D00EE46F000EEC
:10135C00E56FF651EB25D96E000EEC21DA6EDF50FD
:10136C00E66F69EC0CF00001F651EB25EF6F000E07
:10137C00EC21F06F010EEF25D96E000EF021DA6E24
:10138C00DF50F16FD00EF125F26FF36BFF0EF323EC
:10139C00F35109E10A0EF25DD8A0D7EF09F0D9EFAD
:1013AC0009F000EF0AF0F651EB25EF6F000EEC217F
:1013BC00F06F010EEF25D96E000EF021DA6E2E0EB5
:1013CC00DE18D8B4ECEF09F0EEEF09F000EF0AF0FC
:1013DC00010EF56F00EF0AF0C60EE46F000EE56F1C
:1013EC00F651EB25D96E000EEC21DA6EDF50E66F6C
:1013FC0069EC0CF00001F62BF451F65DD8A009EF66
:10140C000AF00BEF0AF07BEF09F04FEF0AF0EBC09C
:10141C00D9FFECC0DAFF4A0EDE18D8A418EF0AF098
:10142C001AEF0AF04FEF0AF0D00EDA6F000EDB6FF6
:10143C00130EDC6F100EDD6FDAEC0CF0C60E000133
:10144C00DA6F000EDB6F130EDC6F100EDD6FDAEC53
:10145C000CF0D00E0001E46F000EE56F20EE01F0F1
:10146C00EB51D926EC51DA22DF50E66F69EC0CF027
:10147C00C60E0001E46F000EE56F20EE02F0EB519A
:10148C00D926EC51DA22DF50E66F69EC0CF0F3EF61
:10149C0008F01200620E0001DA6F000EDB6F160E00
:1014AC00DC6F100EDD6F30EC0CF00001DA51DB114B
:1014BC00D8A463EF0AF065EF0AF067EF0AF04EEF7D
:1014CC000BF0620EDA6F000EDB6F110EDC6F100E7C
:1014DC00DD6F30EC0CF00001DA51DB11D8A479EFA0
:1014EC000AF07BEF0AF07DEF0AF04EEF0BF0620E84
:1014FC00DA6F000EDB6F0D0EDC6F100EDD6F30EC53
:10150C000CF00001DA51DB11D8A48FEF0AF091EF47
:10151C000AF093EF0AF04EEF0BF00D0EF66E100E74
:10152C00F76E0800F55062639EEF0AF0A0EF0AF028
:10153C004EEF0BF00E0EF66E100EF76E0800F55017
:10154C006363ABEF0AF0ADEF0AF04EEF0BF00F0E4A
:10155C00F66E100EF76E0800F5506463B8EF0AF0E3
:10156C00BAEF0AF04EEF0BF0000EF46F45EF0BF0F4
:10157C00F451EB25D96E000EEC21DA6EDF50ED6FD5
:10158C00D00EED25EE6FEF6BFF0EEF23EF5109E15F
:10159C000A0EEE5DD8A0D5EF0AF0D7EF0AF0E6EF11
:1015AC000AF0F451EB25D96E000EEC21DA6E2E0EFA
:1015BC00DE18D8A4E4EF0AF0E6EF0AF043EF0BF0E4
:1015CC00F351D8A4ECEF0AF0EEEF0AF035EF0BF084
:1015DC00BC0EE46F000EE56FF451EB25D96E000ED6
:1015EC00EC21DA6EDF50E66F69EC0CF00001F4517F
:1015FC00EB25ED6F000EEC21EE6F010EED25D96E93
:10160C00000EEE21DA6EDF50EF6FD00EEF25F06F8B
:10161C00F16BFF0EF123F15109E10A0EF05DD8A038
:10162C001AEF0BF01CEF0BF043EF0BF0F451EB2522
:10163C00ED6F000EEC21EE6F010EED25D96E000E54
:10164C00EE21DA6E2E0EDE18D8B42FEF0BF031EF40
:10165C000BF043EF0BF0010EF36F43EF0BF0B20EF8
:10166C00E46F000EE56FF451EB25D96E000EEC2102
:10167C00DA6EDF50E66F69EC0CF00001F42BF251DE
:10168C00F45DD8A04CEF0BF04EEF0BF0BEEF0AF070
:10169C001200670ED36E030E0001F86F080EF76F81
:1016AC00770EE82EFED7F72FFCD7F82FFAD7E7EFF7
:1016BC000BF093EC0DF0D3EC0DF0EEEC0DF0000E06
:1016CC000001FD6F010E606F0DEF0CF06151D8B48D
:1016DC0072EF0BF074EF0BF00DEF0CF0000E616F6E
:1016EC008A0EEB6F000EEC6FF90EED6F000EEE6FC5
:1016FC000EEC08F0F90E0001DA6F000EDB6F0D0E28
:10170C00DC6F100EDD6F30EC0CF00001DA51DB11E8
:10171C00D8A493EF0BF095EF0BF09BEF0BF0020EB0
:10172C00606F010EFD6F0DEF0CF0F90EDA6F000E0D
:10173C00DB6F180EDC6F100EDD6F30EC0CF000015F
:10174C00DA51DB11D8A4ADEF0BF0AFEF0BF00DEFCE
:10175C000CF0030E606F010EFD6F0DEF0CF083BAF1
:10176C00BAEF0BF0BCEF0BF0C0EF0BF0FDC060F06C
:10177C00040EFD6F620EDA6F000EDB6F130EDC6F62
:10178C00100EDD6F30EC0CF00001DA51DB11D8B427
:10179C00D2EF0BF0D4EF0BF00DEF0CF0620EEB6F01
:1017AC00000EEC6F50EC0AF0620E0001DA6F000EC6
:1017BC00DB6F130EDC6F100EDD6FDAEC0CF00DEF3F
:1017CC000CF000016051F76FF86BF851000AD8B4B7
:1017DC00F2EF0BF00DEF0CF0F751000AD8B45FEFFD
:1017EC000BF0010AD8B46CEF0BF0030AD8B40DEF70
:1017FC000CF0010AD8B40DEF0CF0070AD8B4B5EF11
:10180C000BF0010AD8B40DEF0CF00DEF0CF083AA1D
:10181C0012EF0CF014EF0CF0E7EF0BF0040E0001DC
:10182C006019D8B41CEF0CF01EEF0CF0E7EF0BF0C6
:10183C00010EFD6F040E606F620EDA6F000EDB6F2F
:10184C00130EDC6F100EDD6FDAEC0CF0E7EF0BF023
:10185C0099EF00F036EF0CF0DA4BDB2BDC4BDD2B89
:10186C00DAC0D9FFDBC0DAFFDF500001DE6FDCC06D
:10187C00F6FFDDC0F7FF0800F550DE19D8A449EFDC
:10188C000CF04BEF0CF057EF0CF0DAC0D9FFDBC0CB
:10189C00DAFFDF50D8A455EF0CF057EF0CF032EF15
:1018AC000CF0DAC0D9FFDBC0DAFFDF50DE6FDCC032
:1018BC00F6FFDDC0F7FF0800F550DE5DDA6FDB6B7D
:1018CC00D8A0DB071200E4C0DAF0E5C0DBF05BEC7B
:1018DC000DF0DAC0E9F0DBC0EAF00001EA5107E1F3
:1018EC00270EE95DD8B07DEF0CF07FEF0CF097EF91
:1018FC000CF0E951E425D96EEA51E521DA6EE6C027
:10190C00DFFFE951E425E76FEA51E521E86F010EAD
:10191C00E725D96E000EE821DA6E000EDF6EA1EF1E
:10192C000CF0E4C0DAF0E5C0DBF0130EDC6F100E47
:10193C00DD6FDAEC0CF012000BC001F00CC002F001
:10194C0078EC0DF001C010F002C011F0115007E15D
:10195C00270E105CD8B0B5EF0CF0B7EF0CF0CFEF52
:10196C000CF010500B24D96E11500C20DA6E0DC0F7
:10197C00DFFF10500B240E6E11500C200F6E010E59
:10198C000E24D96E000E0F20DA6E000EDF6ED9EF2A
:10199C000CF00BC001F00CC002F0130E036E100E15
:1019AC00046E0AEC0DF01200DCC0E0F0DDC0E1F0DA
:1019BC00DAC0E2F0DBC0E3F00001E051DE6FE15190
:1019CC00DF6FE04BE12BDEC0F6FFDFC0F7FF000E50
:1019DC00F86EE2C0D9FFE3C0DAFFE24BE32B0F0E47
:1019EC00F76403D00800F55005D0F6CFE9FFF7CF28
:1019FC00EAFFEF50DF6EDF50D8A407EF0DF009EFD0
:101A0C000DF0E2EF0CF0120003C007F004C008F078
:101A1C0001C009F002C00AF00750056E0850066EAE
:101A2C00074A082A05C0F6FF06C0F7FF000EF86E3D
:101A3C0009C0D9FF0AC0DAFF094A0A2A0F0EF76457
:101A4C0003D00800F55005D0F6CFE9FFF7CFEAFF39
:101A5C00EF50DF6EDF50D8A436EF0DF038EF0DF0FD
:101A6C0012EF0DF0120001EE50F013EEC0F0EE6A22
:101A7C00E550E150FCE1E250FAE101EE00F0500ECD
:101A8C00EE6AE806FDE100EE60F07A0EEE6AE8061A
:101A9C00FDE14A6A496A486A476A466A4B904B922A
:101AAC00000EF86E00014FEF0BF0DAC0DCF0DBC07B
:101ABC00DDF064EF0DF00001DA4BDB2BDAC0D9FF5F
:101ACC00DBC0DAFFDF50D8A46EEF0DF070EF0DF035
:101ADC0061EF0DF00001DC51DA5DDA6FDD51DB599D
:101AEC00DB6F120001C003F002C004F080EF0DF0B8
:101AFC00014A022A01C0D9FF02C0DAFFDF50D8A484
:101B0C008AEF0DF08CEF0DF07EEF0DF00350015CC1
:101B1C00016E04500258026E1200958C958C958EB5
:101B2C009382938494909492948494969488948AB7
:101B3C008B808B82000E0F01386F000E396F000EF8
:101B4C003A6F000E3B6F000E3C6F1200D00E00017E
:101B5C00DA25DC6FFF0EDB21DD6FDD510AE10A0EA9
:101B6C00DC5DD8A0BCEF0DF0BFEF0DF0010EC0EFA7
:101B7C000DF0000EDA6FDB6B12008B926F50000EC3
:101B8C006F6E6DA0CCEF0DF0CEEF0DF0C7EF0DF03A
:101B9C006FCF01F08B8201501200D09EF29EA38A6F
:101BAC00080ED56EF80ED76E2F0ED66EF28AF28C0A
:101BBC00F28ED58E1200AECF01F071A2E8EF0DF0CF
:101BCC00EAEF0DF0ECEF0DF07198718801501200F6
:101BDC007284330E756E7298718E958E729C719C98
:101BEC007188728A120081BAFEEF0DF000EF0EF0D0
:0A1BFC00F9EF0DF0C3EC0DF012003C
:020000040020DA
:08000000FFFFFFFFFFFFFFFF00
:020000040030CA
:0E000000FF281F3CFFBF85FF0FC00FE00F4021
:00000001FF
